{
  "_format": "hh-sol-artifact-1",
  "contractName": "MockDualCORE",
  "sourceName": "contracts/MockDualCORE.sol",
  "abi": [
    {
      "inputs": [
        {
          "internalType": "address",
          "name": "_stCOREToken",
          "type": "address"
        },
        {
          "internalType": "address",
          "name": "_lstBTCToken",
          "type": "address"
        }
      ],
      "stateMutability": "nonpayable",
      "type": "constructor"
    },
    {
      "inputs": [
        {
          "internalType": "address",
          "name": "spender",
          "type": "address"
        },
        {
          "internalType": "uint256",
          "name": "allowance",
          "type": "uint256"
        },
        {
          "internalType": "uint256",
          "name": "needed",
          "type": "uint256"
        }
      ],
      "name": "ERC20InsufficientAllowance",
      "type": "error"
    },
    {
      "inputs": [
        {
          "internalType": "address",
          "name": "sender",
          "type": "address"
        },
        {
          "internalType": "uint256",
          "name": "balance",
          "type": "uint256"
        },
        {
          "internalType": "uint256",
          "name": "needed",
          "type": "uint256"
        }
      ],
      "name": "ERC20InsufficientBalance",
      "type": "error"
    },
    {
      "inputs": [
        {
          "internalType": "address",
          "name": "approver",
          "type": "address"
        }
      ],
      "name": "ERC20InvalidApprover",
      "type": "error"
    },
    {
      "inputs": [
        {
          "internalType": "address",
          "name": "receiver",
          "type": "address"
        }
      ],
      "name": "ERC20InvalidReceiver",
      "type": "error"
    },
    {
      "inputs": [
        {
          "internalType": "address",
          "name": "sender",
          "type": "address"
        }
      ],
      "name": "ERC20InvalidSender",
      "type": "error"
    },
    {
      "inputs": [
        {
          "internalType": "address",
          "name": "spender",
          "type": "address"
        }
      ],
      "name": "ERC20InvalidSpender",
      "type": "error"
    },
    {
      "inputs": [
        {
          "internalType": "address",
          "name": "owner",
          "type": "address"
        }
      ],
      "name": "OwnableInvalidOwner",
      "type": "error"
    },
    {
      "inputs": [
        {
          "internalType": "address",
          "name": "account",
          "type": "address"
        }
      ],
      "name": "OwnableUnauthorizedAccount",
      "type": "error"
    },
    {
      "anonymous": false,
      "inputs": [
        {
          "indexed": true,
          "internalType": "address",
          "name": "owner",
          "type": "address"
        },
        {
          "indexed": true,
          "internalType": "address",
          "name": "spender",
          "type": "address"
        },
        {
          "indexed": false,
          "internalType": "uint256",
          "name": "value",
          "type": "uint256"
        }
      ],
      "name": "Approval",
      "type": "event"
    },
    {
      "anonymous": false,
      "inputs": [
        {
          "indexed": true,
          "internalType": "address",
          "name": "previousOwner",
          "type": "address"
        },
        {
          "indexed": true,
          "internalType": "address",
          "name": "newOwner",
          "type": "address"
        }
      ],
      "name": "OwnershipTransferred",
      "type": "event"
    },
    {
      "anonymous": false,
      "inputs": [
        {
          "indexed": true,
          "internalType": "address",
          "name": "from",
          "type": "address"
        },
        {
          "indexed": true,
          "internalType": "address",
          "name": "to",
          "type": "address"
        },
        {
          "indexed": false,
          "internalType": "uint256",
          "name": "value",
          "type": "uint256"
        }
      ],
      "name": "Transfer",
      "type": "event"
    },
    {
      "inputs": [],
      "name": "RATIO_LSTBTC",
      "outputs": [
        {
          "internalType": "uint256",
          "name": "",
          "type": "uint256"
        }
      ],
      "stateMutability": "view",
      "type": "function"
    },
    {
      "inputs": [],
      "name": "RATIO_STCORE",
      "outputs": [
        {
          "internalType": "uint256",
          "name": "",
          "type": "uint256"
        }
      ],
      "stateMutability": "view",
      "type": "function"
    },
    {
      "inputs": [
        {
          "internalType": "address",
          "name": "owner",
          "type": "address"
        },
        {
          "internalType": "address",
          "name": "spender",
          "type": "address"
        }
      ],
      "name": "allowance",
      "outputs": [
        {
          "internalType": "uint256",
          "name": "",
          "type": "uint256"
        }
      ],
      "stateMutability": "view",
      "type": "function"
    },
    {
      "inputs": [
        {
          "internalType": "address",
          "name": "spender",
          "type": "address"
        },
        {
          "internalType": "uint256",
          "name": "value",
          "type": "uint256"
        }
      ],
      "name": "approve",
      "outputs": [
        {
          "internalType": "bool",
          "name": "",
          "type": "bool"
        }
      ],
      "stateMutability": "nonpayable",
      "type": "function"
    },
    {
      "inputs": [
        {
          "internalType": "address",
          "name": "account",
          "type": "address"
        }
      ],
      "name": "balanceOf",
      "outputs": [
        {
          "internalType": "uint256",
          "name": "",
          "type": "uint256"
        }
      ],
      "stateMutability": "view",
      "type": "function"
    },
    {
      "inputs": [],
      "name": "decimals",
      "outputs": [
        {
          "internalType": "uint8",
          "name": "",
          "type": "uint8"
        }
      ],
      "stateMutability": "view",
      "type": "function"
    },
    {
      "inputs": [
        {
          "internalType": "address",
          "name": "to",
          "type": "address"
        },
        {
          "internalType": "uint256",
          "name": "amount",
          "type": "uint256"
        }
      ],
      "name": "demoMint",
      "outputs": [],
      "stateMutability": "nonpayable",
      "type": "function"
    },
    {
      "inputs": [],
      "name": "getYieldRate",
      "outputs": [
        {
          "internalType": "uint256",
          "name": "",
          "type": "uint256"
        }
      ],
      "stateMutability": "pure",
      "type": "function"
    },
    {
      "inputs": [],
      "name": "lstBTCToken",
      "outputs": [
        {
          "internalType": "contract IERC20",
          "name": "",
          "type": "address"
        }
      ],
      "stateMutability": "view",
      "type": "function"
    },
    {
      "inputs": [
        {
          "internalType": "uint256",
          "name": "amount",
          "type": "uint256"
        }
      ],
      "name": "mintDual",
      "outputs": [],
      "stateMutability": "nonpayable",
      "type": "function"
    },
    {
      "inputs": [],
      "name": "name",
      "outputs": [
        {
          "internalType": "string",
          "name": "",
          "type": "string"
        }
      ],
      "stateMutability": "view",
      "type": "function"
    },
    {
      "inputs": [],
      "name": "owner",
      "outputs": [
        {
          "internalType": "address",
          "name": "",
          "type": "address"
        }
      ],
      "stateMutability": "view",
      "type": "function"
    },
    {
      "inputs": [
        {
          "internalType": "uint256",
          "name": "amount",
          "type": "uint256"
        }
      ],
      "name": "redeemDual",
      "outputs": [],
      "stateMutability": "nonpayable",
      "type": "function"
    },
    {
      "inputs": [],
      "name": "renounceOwnership",
      "outputs": [],
      "stateMutability": "nonpayable",
      "type": "function"
    },
    {
      "inputs": [],
      "name": "stCOREToken",
      "outputs": [
        {
          "internalType": "contract IERC20",
          "name": "",
          "type": "address"
        }
      ],
      "stateMutability": "view",
      "type": "function"
    },
    {
      "inputs": [],
      "name": "symbol",
      "outputs": [
        {
          "internalType": "string",
          "name": "",
          "type": "string"
        }
      ],
      "stateMutability": "view",
      "type": "function"
    },
    {
      "inputs": [],
      "name": "totalSupply",
      "outputs": [
        {
          "internalType": "uint256",
          "name": "",
          "type": "uint256"
        }
      ],
      "stateMutability": "view",
      "type": "function"
    },
    {
      "inputs": [
        {
          "internalType": "address",
          "name": "to",
          "type": "address"
        },
        {
          "internalType": "uint256",
          "name": "value",
          "type": "uint256"
        }
      ],
      "name": "transfer",
      "outputs": [
        {
          "internalType": "bool",
          "name": "",
          "type": "bool"
        }
      ],
      "stateMutability": "nonpayable",
      "type": "function"
    },
    {
      "inputs": [
        {
          "internalType": "address",
          "name": "from",
          "type": "address"
        },
        {
          "internalType": "address",
          "name": "to",
          "type": "address"
        },
        {
          "internalType": "uint256",
          "name": "value",
          "type": "uint256"
        }
      ],
      "name": "transferFrom",
      "outputs": [
        {
          "internalType": "bool",
          "name": "",
          "type": "bool"
        }
      ],
      "stateMutability": "nonpayable",
      "type": "function"
    },
    {
      "inputs": [
        {
          "internalType": "address",
          "name": "newOwner",
          "type": "address"
        }
      ],
      "name": "transferOwnership",
      "outputs": [],
      "stateMutability": "nonpayable",
      "type": "function"
    }
  ],
  "bytecode": "0x60806040523480156200001157600080fd5b50604051620011c6380380620011c683398101604081905262000034916200017e565b336040518060400160405280601081526020016f4475616c205374616b656420434f524560801b815250604051806040016040528060088152602001676475616c434f524560c01b81525081600390816200009091906200025d565b5060046200009f82826200025d565b5050506001600160a01b038116620000d157604051631e4fbdf760e01b81526000600482015260240160405180910390fd5b620000dc816200010f565b50600680546001600160a01b039384166001600160a01b0319918216179091556007805492909316911617905562000329565b600580546001600160a01b038381166001600160a01b0319831681179093556040519116919082907f8be0079c531659141344cd1fd0a4f28419497f9722a3daafe3b4186f6b6457e090600090a35050565b80516001600160a01b03811681146200017957600080fd5b919050565b600080604083850312156200019257600080fd5b6200019d8362000161565b9150620001ad6020840162000161565b90509250929050565b634e487b7160e01b600052604160045260246000fd5b600181811c90821680620001e157607f821691505b6020821081036200020257634e487b7160e01b600052602260045260246000fd5b50919050565b601f82111562000258576000816000526020600020601f850160051c81016020861015620002335750805b601f850160051c820191505b8181101562000254578281556001016200023f565b5050505b505050565b81516001600160401b03811115620002795762000279620001b6565b62000291816200028a8454620001cc565b8462000208565b602080601f831160018114620002c95760008415620002b05750858301515b600019600386901b1c1916600185901b17855562000254565b600085815260208120601f198616915b82811015620002fa57888601518255948401946001909101908401620002d9565b5085821015620003195787850151600019600388901b60f8161c191681555b5050505050600190811b01905550565b610e8d80620003396000396000f3fe608060405234801561001057600080fd5b506004361061012c5760003560e01c80638da5cb5b116100ad578063b554194911610071578063b55419491461026d578063d54a6d7c14610265578063dd62ed3e14610280578063f1009899146102b9578063f2fde38b146102c157600080fd5b80638da5cb5b1461021257806395d89b41146102375780639ba51e931461023f578063a9059cbb14610252578063b0a0f4371461026557600080fd5b80634b24cca2116100f45780634b24cca2146101a6578063651d9d2f146101bb57806370a08231146101ce578063715018a6146101f75780638b12a262146101ff57600080fd5b806306fdde0314610131578063095ea7b31461014f57806318160ddd1461017257806323b872dd14610184578063313ce56714610197575b600080fd5b6101396102d4565b6040516101469190610c41565b60405180910390f35b61016261015d366004610cac565b610366565b6040519015158152602001610146565b6002545b604051908152602001610146565b610162610192366004610cd6565b610380565b60405160128152602001610146565b6101b96101b4366004610d12565b6103a4565b005b6101b96101c9366004610d12565b61065d565b6101766101dc366004610d2b565b6001600160a01b031660009081526020819052604090205490565b6101b96107ed565b6101b961020d366004610cac565b610801565b6005546001600160a01b03165b6040516001600160a01b039091168152602001610146565b610139610817565b60065461021f906001600160a01b031681565b610162610260366004610cac565b610826565b610176603281565b60075461021f906001600160a01b031681565b61017661028e366004610d4d565b6001600160a01b03918216600090815260016020908152604080832093909416825291909152205490565b6102bc610176565b6101b96102cf366004610d2b565b610834565b6060600380546102e390610d80565b80601f016020809104026020016040519081016040528092919081815260200182805461030f90610d80565b801561035c5780601f106103315761010080835404028352916020019161035c565b820191906000526020600020905b81548152906001019060200180831161033f57829003601f168201915b5050505050905090565b600033610374818585610872565b60019150505b92915050565b60003361038e85828561087f565b6103998585856108f8565b506001949350505050565b600060646103b3603284610dd0565b6103bd9190610de7565b9050600060646103ce603285610dd0565b6103d89190610de7565b6006546040516370a0823160e01b815233600482015291925083916001600160a01b03909116906370a0823190602401602060405180830381865afa158015610425573d6000803e3d6000fd5b505050506040513d601f19601f820116820180604052508101906104499190610e09565b101561049c5760405162461bcd60e51b815260206004820152601b60248201527f496e73756666696369656e74207374434f52452062616c616e6365000000000060448201526064015b60405180910390fd5b6007546040516370a0823160e01b815233600482015282916001600160a01b0316906370a0823190602401602060405180830381865afa1580156104e4573d6000803e3d6000fd5b505050506040513d601f19601f820116820180604052508101906105089190610e09565b10156105565760405162461bcd60e51b815260206004820152601b60248201527f496e73756666696369656e74206c73744254432062616c616e636500000000006044820152606401610493565b6006546040516323b872dd60e01b8152336004820152306024820152604481018490526001600160a01b03909116906323b872dd906064016020604051808303816000875af11580156105ad573d6000803e3d6000fd5b505050506040513d601f19601f820116820180604052508101906105d19190610e22565b506007546040516323b872dd60e01b8152336004820152306024820152604481018390526001600160a01b03909116906323b872dd906064016020604051808303816000875af1158015610629573d6000803e3d6000fd5b505050506040513d601f19601f8201168201806040525081019061064d9190610e22565b506106583384610957565b505050565b336000908152602081905260409020548111156106bc5760405162461bcd60e51b815260206004820152601d60248201527f496e73756666696369656e74206475616c434f52452062616c616e63650000006044820152606401610493565b600060646106cb603284610dd0565b6106d59190610de7565b9050600060646106e6603285610dd0565b6106f09190610de7565b90506106fc338461098d565b60065460405163a9059cbb60e01b8152336004820152602481018490526001600160a01b039091169063a9059cbb906044016020604051808303816000875af115801561074d573d6000803e3d6000fd5b505050506040513d601f19601f820116820180604052508101906107719190610e22565b5060075460405163a9059cbb60e01b8152336004820152602481018390526001600160a01b039091169063a9059cbb906044016020604051808303816000875af11580156107c3573d6000803e3d6000fd5b505050506040513d601f19601f820116820180604052508101906107e79190610e22565b50505050565b6107f56109c3565b6107ff60006109f0565b565b6108096109c3565b6108138282610957565b5050565b6060600480546102e390610d80565b6000336103748185856108f8565b61083c6109c3565b6001600160a01b03811661086657604051631e4fbdf760e01b815260006004820152602401610493565b61086f816109f0565b50565b6106588383836001610a42565b6001600160a01b038381166000908152600160209081526040808320938616835292905220546000198110156107e757818110156108e957604051637dc7a0d960e11b81526001600160a01b03841660048201526024810182905260448101839052606401610493565b6107e784848484036000610a42565b6001600160a01b03831661092257604051634b637e8f60e11b815260006004820152602401610493565b6001600160a01b03821661094c5760405163ec442f0560e01b815260006004820152602401610493565b610658838383610b17565b6001600160a01b0382166109815760405163ec442f0560e01b815260006004820152602401610493565b61081360008383610b17565b6001600160a01b0382166109b757604051634b637e8f60e11b815260006004820152602401610493565b61081382600083610b17565b6005546001600160a01b031633146107ff5760405163118cdaa760e01b8152336004820152602401610493565b600580546001600160a01b038381166001600160a01b0319831681179093556040519116919082907f8be0079c531659141344cd1fd0a4f28419497f9722a3daafe3b4186f6b6457e090600090a35050565b6001600160a01b038416610a6c5760405163e602df0560e01b815260006004820152602401610493565b6001600160a01b038316610a9657604051634a1406b160e11b815260006004820152602401610493565b6001600160a01b03808516600090815260016020908152604080832093871683529290522082905580156107e757826001600160a01b0316846001600160a01b03167f8c5be1e5ebec7d5bd14f71427d1e84f3dd0314c0f7b2291e5b200ac8c7c3b92584604051610b0991815260200190565b60405180910390a350505050565b6001600160a01b038316610b42578060026000828254610b379190610e44565b90915550610bb49050565b6001600160a01b03831660009081526020819052604090205481811015610b955760405163391434e360e21b81526001600160a01b03851660048201526024810182905260448101839052606401610493565b6001600160a01b03841660009081526020819052604090209082900390555b6001600160a01b038216610bd057600280548290039055610bef565b6001600160a01b03821660009081526020819052604090208054820190555b816001600160a01b0316836001600160a01b03167fddf252ad1be2c89b69c2b068fc378daa952ba7f163c4a11628f55a4df523b3ef83604051610c3491815260200190565b60405180910390a3505050565b60006020808352835180602085015260005b81811015610c6f57858101830151858201604001528201610c53565b506000604082860101526040601f19601f8301168501019250505092915050565b80356001600160a01b0381168114610ca757600080fd5b919050565b60008060408385031215610cbf57600080fd5b610cc883610c90565b946020939093013593505050565b600080600060608486031215610ceb57600080fd5b610cf484610c90565b9250610d0260208501610c90565b9150604084013590509250925092565b600060208284031215610d2457600080fd5b5035919050565b600060208284031215610d3d57600080fd5b610d4682610c90565b9392505050565b60008060408385031215610d6057600080fd5b610d6983610c90565b9150610d7760208401610c90565b90509250929050565b600181811c90821680610d9457607f821691505b602082108103610db457634e487b7160e01b600052602260045260246000fd5b50919050565b634e487b7160e01b600052601160045260246000fd5b808202811582820484141761037a5761037a610dba565b600082610e0457634e487b7160e01b600052601260045260246000fd5b500490565b600060208284031215610e1b57600080fd5b5051919050565b600060208284031215610e3457600080fd5b81518015158114610d4657600080fd5b8082018082111561037a5761037a610dba56fea26469706673582212205cd7eb9119c6972cf031c346de97c5d758bf424a2463f6f1cd294ce7cf35d65464736f6c63430008180033",
  "linkReferences": {},
  "deployedLinkReferences": {}
}