{
  "_format": "hh-sol-artifact-1",
  "contractName": "RewardToken",
  "sourceName": "contracts/RewardToken.sol",
  "abi": [
    {
      "inputs": [
        {
          "internalType": "string",
          "name": "name",
          "type": "string"
        },
        {
          "internalType": "string",
          "name": "symbol",
          "type": "string"
        }
      ],
      "stateMutability": "nonpayable",
      "type": "constructor"
    },
    {
      "inputs": [],
      "name": "ECDSAInvalidSignature",
      "type": "error"
    },
    {
      "inputs": [
        {
          "internalType": "uint256",
          "name": "length",
          "type": "uint256"
        }
      ],
      "name": "ECDSAInvalidSignatureLength",
      "type": "error"
    },
    {
      "inputs": [
        {
          "internalType": "bytes32",
          "name": "s",
          "type": "bytes32"
        }
      ],
      "name": "ECDSAInvalidSignatureS",
      "type": "error"
    },
    {
      "inputs": [
        {
          "internalType": "address",
          "name": "spender",
          "type": "address"
        },
        {
          "internalType": "uint256",
          "name": "allowance",
          "type": "uint256"
        },
        {
          "internalType": "uint256",
          "name": "needed",
          "type": "uint256"
        }
      ],
      "name": "ERC20InsufficientAllowance",
      "type": "error"
    },
    {
      "inputs": [
        {
          "internalType": "address",
          "name": "sender",
          "type": "address"
        },
        {
          "internalType": "uint256",
          "name": "balance",
          "type": "uint256"
        },
        {
          "internalType": "uint256",
          "name": "needed",
          "type": "uint256"
        }
      ],
      "name": "ERC20InsufficientBalance",
      "type": "error"
    },
    {
      "inputs": [
        {
          "internalType": "address",
          "name": "approver",
          "type": "address"
        }
      ],
      "name": "ERC20InvalidApprover",
      "type": "error"
    },
    {
      "inputs": [
        {
          "internalType": "address",
          "name": "receiver",
          "type": "address"
        }
      ],
      "name": "ERC20InvalidReceiver",
      "type": "error"
    },
    {
      "inputs": [
        {
          "internalType": "address",
          "name": "sender",
          "type": "address"
        }
      ],
      "name": "ERC20InvalidSender",
      "type": "error"
    },
    {
      "inputs": [
        {
          "internalType": "address",
          "name": "spender",
          "type": "address"
        }
      ],
      "name": "ERC20InvalidSpender",
      "type": "error"
    },
    {
      "inputs": [
        {
          "internalType": "uint256",
          "name": "deadline",
          "type": "uint256"
        }
      ],
      "name": "ERC2612ExpiredSignature",
      "type": "error"
    },
    {
      "inputs": [
        {
          "internalType": "address",
          "name": "signer",
          "type": "address"
        },
        {
          "internalType": "address",
          "name": "owner",
          "type": "address"
        }
      ],
      "name": "ERC2612InvalidSigner",
      "type": "error"
    },
    {
      "inputs": [
        {
          "internalType": "address",
          "name": "account",
          "type": "address"
        },
        {
          "internalType": "uint256",
          "name": "currentNonce",
          "type": "uint256"
        }
      ],
      "name": "InvalidAccountNonce",
      "type": "error"
    },
    {
      "inputs": [],
      "name": "InvalidShortString",
      "type": "error"
    },
    {
      "inputs": [
        {
          "internalType": "address",
          "name": "owner",
          "type": "address"
        }
      ],
      "name": "OwnableInvalidOwner",
      "type": "error"
    },
    {
      "inputs": [
        {
          "internalType": "address",
          "name": "account",
          "type": "address"
        }
      ],
      "name": "OwnableUnauthorizedAccount",
      "type": "error"
    },
    {
      "inputs": [
        {
          "internalType": "string",
          "name": "str",
          "type": "string"
        }
      ],
      "name": "StringTooLong",
      "type": "error"
    },
    {
      "anonymous": false,
      "inputs": [
        {
          "indexed": true,
          "internalType": "address",
          "name": "owner",
          "type": "address"
        },
        {
          "indexed": true,
          "internalType": "address",
          "name": "spender",
          "type": "address"
        },
        {
          "indexed": false,
          "internalType": "uint256",
          "name": "value",
          "type": "uint256"
        }
      ],
      "name": "Approval",
      "type": "event"
    },
    {
      "anonymous": false,
      "inputs": [],
      "name": "EIP712DomainChanged",
      "type": "event"
    },
    {
      "anonymous": false,
      "inputs": [
        {
          "indexed": true,
          "internalType": "address",
          "name": "previousOwner",
          "type": "address"
        },
        {
          "indexed": true,
          "internalType": "address",
          "name": "newOwner",
          "type": "address"
        }
      ],
      "name": "OwnershipTransferred",
      "type": "event"
    },
    {
      "anonymous": false,
      "inputs": [
        {
          "indexed": true,
          "internalType": "address",
          "name": "from",
          "type": "address"
        },
        {
          "indexed": true,
          "internalType": "address",
          "name": "to",
          "type": "address"
        },
        {
          "indexed": false,
          "internalType": "uint256",
          "name": "value",
          "type": "uint256"
        }
      ],
      "name": "Transfer",
      "type": "event"
    },
    {
      "inputs": [],
      "name": "DOMAIN_SEPARATOR",
      "outputs": [
        {
          "internalType": "bytes32",
          "name": "",
          "type": "bytes32"
        }
      ],
      "stateMutability": "view",
      "type": "function"
    },
    {
      "inputs": [
        {
          "internalType": "address",
          "name": "owner",
          "type": "address"
        },
        {
          "internalType": "address",
          "name": "spender",
          "type": "address"
        }
      ],
      "name": "allowance",
      "outputs": [
        {
          "internalType": "uint256",
          "name": "",
          "type": "uint256"
        }
      ],
      "stateMutability": "view",
      "type": "function"
    },
    {
      "inputs": [
        {
          "internalType": "address",
          "name": "spender",
          "type": "address"
        },
        {
          "internalType": "uint256",
          "name": "value",
          "type": "uint256"
        }
      ],
      "name": "approve",
      "outputs": [
        {
          "internalType": "bool",
          "name": "",
          "type": "bool"
        }
      ],
      "stateMutability": "nonpayable",
      "type": "function"
    },
    {
      "inputs": [
        {
          "internalType": "address",
          "name": "account",
          "type": "address"
        }
      ],
      "name": "balanceOf",
      "outputs": [
        {
          "internalType": "uint256",
          "name": "",
          "type": "uint256"
        }
      ],
      "stateMutability": "view",
      "type": "function"
    },
    {
      "inputs": [],
      "name": "decimals",
      "outputs": [
        {
          "internalType": "uint8",
          "name": "",
          "type": "uint8"
        }
      ],
      "stateMutability": "view",
      "type": "function"
    },
    {
      "inputs": [],
      "name": "eip712Domain",
      "outputs": [
        {
          "internalType": "bytes1",
          "name": "fields",
          "type": "bytes1"
        },
        {
          "internalType": "string",
          "name": "name",
          "type": "string"
        },
        {
          "internalType": "string",
          "name": "version",
          "type": "string"
        },
        {
          "internalType": "uint256",
          "name": "chainId",
          "type": "uint256"
        },
        {
          "internalType": "address",
          "name": "verifyingContract",
          "type": "address"
        },
        {
          "internalType": "bytes32",
          "name": "salt",
          "type": "bytes32"
        },
        {
          "internalType": "uint256[]",
          "name": "extensions",
          "type": "uint256[]"
        }
      ],
      "stateMutability": "view",
      "type": "function"
    },
    {
      "inputs": [
        {
          "internalType": "address",
          "name": "to",
          "type": "address"
        },
        {
          "internalType": "uint256",
          "name": "amount",
          "type": "uint256"
        }
      ],
      "name": "mint",
      "outputs": [],
      "stateMutability": "nonpayable",
      "type": "function"
    },
    {
      "inputs": [],
      "name": "name",
      "outputs": [
        {
          "internalType": "string",
          "name": "",
          "type": "string"
        }
      ],
      "stateMutability": "view",
      "type": "function"
    },
    {
      "inputs": [
        {
          "internalType": "address",
          "name": "owner",
          "type": "address"
        }
      ],
      "name": "nonces",
      "outputs": [
        {
          "internalType": "uint256",
          "name": "",
          "type": "uint256"
        }
      ],
      "stateMutability": "view",
      "type": "function"
    },
    {
      "inputs": [],
      "name": "owner",
      "outputs": [
        {
          "internalType": "address",
          "name": "",
          "type": "address"
        }
      ],
      "stateMutability": "view",
      "type": "function"
    },
    {
      "inputs": [
        {
          "internalType": "address",
          "name": "owner",
          "type": "address"
        },
        {
          "internalType": "address",
          "name": "spender",
          "type": "address"
        },
        {
          "internalType": "uint256",
          "name": "value",
          "type": "uint256"
        },
        {
          "internalType": "uint256",
          "name": "deadline",
          "type": "uint256"
        },
        {
          "internalType": "uint8",
          "name": "v",
          "type": "uint8"
        },
        {
          "internalType": "bytes32",
          "name": "r",
          "type": "bytes32"
        },
        {
          "internalType": "bytes32",
          "name": "s",
          "type": "bytes32"
        }
      ],
      "name": "permit",
      "outputs": [],
      "stateMutability": "nonpayable",
      "type": "function"
    },
    {
      "inputs": [],
      "name": "renounceOwnership",
      "outputs": [],
      "stateMutability": "nonpayable",
      "type": "function"
    },
    {
      "inputs": [],
      "name": "symbol",
      "outputs": [
        {
          "internalType": "string",
          "name": "",
          "type": "string"
        }
      ],
      "stateMutability": "view",
      "type": "function"
    },
    {
      "inputs": [],
      "name": "totalSupply",
      "outputs": [
        {
          "internalType": "uint256",
          "name": "",
          "type": "uint256"
        }
      ],
      "stateMutability": "view",
      "type": "function"
    },
    {
      "inputs": [
        {
          "internalType": "address",
          "name": "to",
          "type": "address"
        },
        {
          "internalType": "uint256",
          "name": "value",
          "type": "uint256"
        }
      ],
      "name": "transfer",
      "outputs": [
        {
          "internalType": "bool",
          "name": "",
          "type": "bool"
        }
      ],
      "stateMutability": "nonpayable",
      "type": "function"
    },
    {
      "inputs": [
        {
          "internalType": "address",
          "name": "from",
          "type": "address"
        },
        {
          "internalType": "address",
          "name": "to",
          "type": "address"
        },
        {
          "internalType": "uint256",
          "name": "value",
          "type": "uint256"
        }
      ],
      "name": "transferFrom",
      "outputs": [
        {
          "internalType": "bool",
          "name": "",
          "type": "bool"
        }
      ],
      "stateMutability": "nonpayable",
      "type": "function"
    },
    {
      "inputs": [
        {
          "internalType": "address",
          "name": "newOwner",
          "type": "address"
        }
      ],
      "name": "transferOwnership",
      "outputs": [],
      "stateMutability": "nonpayable",
      "type": "function"
    }
  ],
  "bytecode": "0x6101606040523480156200001257600080fd5b506040516200161c3803806200161c83398101604081905262000035916200030a565b6040805180820190915260018152603160f81b602082015282908190338285600362000062838262000405565b50600462000071828262000405565b5050506001600160a01b038116620000a457604051631e4fbdf760e01b8152600060048201526024015b60405180910390fd5b620000af816200016f565b50620000bd826006620001c1565b61012052620000ce816007620001c1565b61014052815160208084019190912060e052815190820120610100524660a0526200015c60e05161010051604080517f8b73c3c69bb8fe3d512ecc4cf759cc79239f7b179b0ffacaa9a75d522b39400f60208201529081019290925260608201524660808201523060a082015260009060c00160405160208183030381529060405280519060200120905090565b60805250503060c052506200052b915050565b600580546001600160a01b038381166001600160a01b0319831681179093556040519116919082907f8be0079c531659141344cd1fd0a4f28419497f9722a3daafe3b4186f6b6457e090600090a35050565b6000602083511015620001e157620001d983620001fa565b9050620001f4565b81620001ee848262000405565b5060ff90505b92915050565b600080829050601f8151111562000228578260405163305a27a960e01b81526004016200009b9190620004d1565b8051620002358262000506565b179392505050565b634e487b7160e01b600052604160045260246000fd5b60005b838110156200027057818101518382015260200162000256565b50506000910152565b600082601f8301126200028b57600080fd5b81516001600160401b0380821115620002a857620002a86200023d565b604051601f8301601f19908116603f01168101908282118183101715620002d357620002d36200023d565b81604052838152866020858801011115620002ed57600080fd5b6200030084602083016020890162000253565b9695505050505050565b600080604083850312156200031e57600080fd5b82516001600160401b03808211156200033657600080fd5b620003448683870162000279565b935060208501519150808211156200035b57600080fd5b506200036a8582860162000279565b9150509250929050565b600181811c908216806200038957607f821691505b602082108103620003aa57634e487b7160e01b600052602260045260246000fd5b50919050565b601f82111562000400576000816000526020600020601f850160051c81016020861015620003db5750805b601f850160051c820191505b81811015620003fc57828155600101620003e7565b5050505b505050565b81516001600160401b038111156200042157620004216200023d565b620004398162000432845462000374565b84620003b0565b602080601f831160018114620004715760008415620004585750858301515b600019600386901b1c1916600185901b178555620003fc565b600085815260208120601f198616915b82811015620004a25788860151825594840194600190910190840162000481565b5085821015620004c15787850151600019600388901b60f8161c191681555b5050505050600190811b01905550565b6020815260008251806020840152620004f281604085016020870162000253565b601f01601f19169190910160400192915050565b80516020808301519190811015620003aa5760001960209190910360031b1b16919050565b60805160a05160c05160e0516101005161012051610140516110966200058660003960006108990152600061086c0152600061075f0152600061073701526000610692015260006106bc015260006106e601526110966000f3fe608060405234801561001057600080fd5b506004361061010b5760003560e01c8063715018a6116100a257806395d89b411161007157806395d89b411461021c578063a9059cbb14610224578063d505accf14610237578063dd62ed3e1461024a578063f2fde38b1461028357600080fd5b8063715018a6146101cb5780637ecebe00146101d357806384b0196e146101e65780638da5cb5b1461020157600080fd5b8063313ce567116100de578063313ce567146101765780633644e5151461018557806340c10f191461018d57806370a08231146101a257600080fd5b806306fdde0314610110578063095ea7b31461012e57806318160ddd1461015157806323b872dd14610163575b600080fd5b610118610296565b6040516101259190610df9565b60405180910390f35b61014161013c366004610e2f565b610328565b6040519015158152602001610125565b6002545b604051908152602001610125565b610141610171366004610e59565b610342565b60405160128152602001610125565b610155610366565b6101a061019b366004610e2f565b610375565b005b6101556101b0366004610e95565b6001600160a01b031660009081526020819052604090205490565b6101a0610383565b6101556101e1366004610e95565b610397565b6101ee6103b5565b6040516101259796959493929190610eb0565b6005546040516001600160a01b039091168152602001610125565b6101186103fb565b610141610232366004610e2f565b61040a565b6101a0610245366004610f49565b610418565b610155610258366004610fbc565b6001600160a01b03918216600090815260016020908152604080832093909416825291909152205490565b6101a0610291366004610e95565b610557565b6060600380546102a590610fef565b80601f01602080910402602001604051908101604052809291908181526020018280546102d190610fef565b801561031e5780601f106102f35761010080835404028352916020019161031e565b820191906000526020600020905b81548152906001019060200180831161030157829003601f168201915b5050505050905090565b600033610336818585610595565b60019150505b92915050565b6000336103508582856105a7565b61035b858585610626565b506001949350505050565b6000610370610685565b905090565b61037f82826107b0565b5050565b61038b6107e6565b6103956000610813565b565b6001600160a01b03811660009081526008602052604081205461033c565b6000606080600080600060606103c9610865565b6103d1610892565b60408051600080825260208201909252600f60f81b9b939a50919850469750309650945092509050565b6060600480546102a590610fef565b600033610336818585610626565b834211156104415760405163313c898160e11b8152600481018590526024015b60405180910390fd5b60007f6e71edae12b1b97f4d1f60370fef10105fa2faae0126114a169c64845d6126c988888861048e8c6001600160a01b0316600090815260086020526040902080546001810190915590565b6040805160208101969096526001600160a01b0394851690860152929091166060840152608083015260a082015260c0810186905260e00160405160208183030381529060405280519060200120905060006104e9826108bf565b905060006104f9828787876108ec565b9050896001600160a01b0316816001600160a01b031614610540576040516325c0072360e11b81526001600160a01b0380831660048301528b166024820152604401610438565b61054b8a8a8a610595565b50505050505050505050565b61055f6107e6565b6001600160a01b03811661058957604051631e4fbdf760e01b815260006004820152602401610438565b61059281610813565b50565b6105a2838383600161091a565b505050565b6001600160a01b03838116600090815260016020908152604080832093861683529290522054600019811015610620578181101561061157604051637dc7a0d960e11b81526001600160a01b03841660048201526024810182905260448101839052606401610438565b6106208484848403600061091a565b50505050565b6001600160a01b03831661065057604051634b637e8f60e11b815260006004820152602401610438565b6001600160a01b03821661067a5760405163ec442f0560e01b815260006004820152602401610438565b6105a28383836109ef565b6000306001600160a01b037f0000000000000000000000000000000000000000000000000000000000000000161480156106de57507f000000000000000000000000000000000000000000000000000000000000000046145b1561070857507f000000000000000000000000000000000000000000000000000000000000000090565b610370604080517f8b73c3c69bb8fe3d512ecc4cf759cc79239f7b179b0ffacaa9a75d522b39400f60208201527f0000000000000000000000000000000000000000000000000000000000000000918101919091527f000000000000000000000000000000000000000000000000000000000000000060608201524660808201523060a082015260009060c00160405160208183030381529060405280519060200120905090565b6001600160a01b0382166107da5760405163ec442f0560e01b815260006004820152602401610438565b61037f600083836109ef565b6005546001600160a01b031633146103955760405163118cdaa760e01b8152336004820152602401610438565b600580546001600160a01b038381166001600160a01b0319831681179093556040519116919082907f8be0079c531659141344cd1fd0a4f28419497f9722a3daafe3b4186f6b6457e090600090a35050565b60606103707f00000000000000000000000000000000000000000000000000000000000000006006610b19565b60606103707f00000000000000000000000000000000000000000000000000000000000000006007610b19565b600061033c6108cc610685565b8360405161190160f01b8152600281019290925260228201526042902090565b6000806000806108fe88888888610bc4565b92509250925061090e8282610c93565b50909695505050505050565b6001600160a01b0384166109445760405163e602df0560e01b815260006004820152602401610438565b6001600160a01b03831661096e57604051634a1406b160e11b815260006004820152602401610438565b6001600160a01b038085166000908152600160209081526040808320938716835292905220829055801561062057826001600160a01b0316846001600160a01b03167f8c5be1e5ebec7d5bd14f71427d1e84f3dd0314c0f7b2291e5b200ac8c7c3b925846040516109e191815260200190565b60405180910390a350505050565b6001600160a01b038316610a1a578060026000828254610a0f9190611029565b90915550610a8c9050565b6001600160a01b03831660009081526020819052604090205481811015610a6d5760405163391434e360e21b81526001600160a01b03851660048201526024810182905260448101839052606401610438565b6001600160a01b03841660009081526020819052604090209082900390555b6001600160a01b038216610aa857600280548290039055610ac7565b6001600160a01b03821660009081526020819052604090208054820190555b816001600160a01b0316836001600160a01b03167fddf252ad1be2c89b69c2b068fc378daa952ba7f163c4a11628f55a4df523b3ef83604051610b0c91815260200190565b60405180910390a3505050565b606060ff8314610b3357610b2c83610d4c565b905061033c565b818054610b3f90610fef565b80601f0160208091040260200160405190810160405280929190818152602001828054610b6b90610fef565b8015610bb85780601f10610b8d57610100808354040283529160200191610bb8565b820191906000526020600020905b815481529060010190602001808311610b9b57829003601f168201915b5050505050905061033c565b600080807f7fffffffffffffffffffffffffffffff5d576e7357a4501ddfe92f46681b20a0841115610bff5750600091506003905082610c89565b604080516000808252602082018084528a905260ff891692820192909252606081018790526080810186905260019060a0016020604051602081039080840390855afa158015610c53573d6000803e3d6000fd5b5050604051601f1901519150506001600160a01b038116610c7f57506000925060019150829050610c89565b9250600091508190505b9450945094915050565b6000826003811115610ca757610ca761104a565b03610cb0575050565b6001826003811115610cc457610cc461104a565b03610ce25760405163f645eedf60e01b815260040160405180910390fd5b6002826003811115610cf657610cf661104a565b03610d175760405163fce698f760e01b815260048101829052602401610438565b6003826003811115610d2b57610d2b61104a565b0361037f576040516335e2f38360e21b815260048101829052602401610438565b60606000610d5983610d8b565b604080516020808252818301909252919250600091906020820181803683375050509182525060208101929092525090565b600060ff8216601f81111561033c57604051632cd44ac360e21b815260040160405180910390fd5b6000815180845260005b81811015610dd957602081850181015186830182015201610dbd565b506000602082860101526020601f19601f83011685010191505092915050565b602081526000610e0c6020830184610db3565b9392505050565b80356001600160a01b0381168114610e2a57600080fd5b919050565b60008060408385031215610e4257600080fd5b610e4b83610e13565b946020939093013593505050565b600080600060608486031215610e6e57600080fd5b610e7784610e13565b9250610e8560208501610e13565b9150604084013590509250925092565b600060208284031215610ea757600080fd5b610e0c82610e13565b60ff60f81b881681526000602060e06020840152610ed160e084018a610db3565b8381036040850152610ee3818a610db3565b606085018990526001600160a01b038816608086015260a0850187905284810360c08601528551808252602080880193509091019060005b81811015610f3757835183529284019291840191600101610f1b565b50909c9b505050505050505050505050565b600080600080600080600060e0888a031215610f6457600080fd5b610f6d88610e13565b9650610f7b60208901610e13565b95506040880135945060608801359350608088013560ff81168114610f9f57600080fd5b9699959850939692959460a0840135945060c09093013592915050565b60008060408385031215610fcf57600080fd5b610fd883610e13565b9150610fe660208401610e13565b90509250929050565b600181811c9082168061100357607f821691505b60208210810361102357634e487b7160e01b600052602260045260246000fd5b50919050565b8082018082111561033c57634e487b7160e01b600052601160045260246000fd5b634e487b7160e01b600052602160045260246000fdfea26469706673582212209a3a915192eeea75a030256885511a0d80243e66caa470b55a84a20ac0b7479c64736f6c63430008180033",
  "linkReferences": {},
  "deployedLinkReferences": {}
}