{
  "_format": "hh-sol-artifact-1",
  "contractName": "SYlstBTC",
  "sourceName": "contracts/SYlstBTC.sol",
  "abi": [
    {
      "inputs": [
        {
          "internalType": "address",
          "name": "_lstBTCToken",
          "type": "address"
        }
      ],
      "stateMutability": "nonpayable",
      "type": "constructor"
    },
    {
      "inputs": [
        {
          "internalType": "address",
          "name": "spender",
          "type": "address"
        },
        {
          "internalType": "uint256",
          "name": "allowance",
          "type": "uint256"
        },
        {
          "internalType": "uint256",
          "name": "needed",
          "type": "uint256"
        }
      ],
      "name": "ERC20InsufficientAllowance",
      "type": "error"
    },
    {
      "inputs": [
        {
          "internalType": "address",
          "name": "sender",
          "type": "address"
        },
        {
          "internalType": "uint256",
          "name": "balance",
          "type": "uint256"
        },
        {
          "internalType": "uint256",
          "name": "needed",
          "type": "uint256"
        }
      ],
      "name": "ERC20InsufficientBalance",
      "type": "error"
    },
    {
      "inputs": [
        {
          "internalType": "address",
          "name": "approver",
          "type": "address"
        }
      ],
      "name": "ERC20InvalidApprover",
      "type": "error"
    },
    {
      "inputs": [
        {
          "internalType": "address",
          "name": "receiver",
          "type": "address"
        }
      ],
      "name": "ERC20InvalidReceiver",
      "type": "error"
    },
    {
      "inputs": [
        {
          "internalType": "address",
          "name": "sender",
          "type": "address"
        }
      ],
      "name": "ERC20InvalidSender",
      "type": "error"
    },
    {
      "inputs": [
        {
          "internalType": "address",
          "name": "spender",
          "type": "address"
        }
      ],
      "name": "ERC20InvalidSpender",
      "type": "error"
    },
    {
      "inputs": [
        {
          "internalType": "address",
          "name": "owner",
          "type": "address"
        }
      ],
      "name": "OwnableInvalidOwner",
      "type": "error"
    },
    {
      "inputs": [
        {
          "internalType": "address",
          "name": "account",
          "type": "address"
        }
      ],
      "name": "OwnableUnauthorizedAccount",
      "type": "error"
    },
    {
      "anonymous": false,
      "inputs": [
        {
          "indexed": true,
          "internalType": "address",
          "name": "owner",
          "type": "address"
        },
        {
          "indexed": true,
          "internalType": "address",
          "name": "spender",
          "type": "address"
        },
        {
          "indexed": false,
          "internalType": "uint256",
          "name": "value",
          "type": "uint256"
        }
      ],
      "name": "Approval",
      "type": "event"
    },
    {
      "anonymous": false,
      "inputs": [
        {
          "indexed": true,
          "internalType": "address",
          "name": "previousOwner",
          "type": "address"
        },
        {
          "indexed": true,
          "internalType": "address",
          "name": "newOwner",
          "type": "address"
        }
      ],
      "name": "OwnershipTransferred",
      "type": "event"
    },
    {
      "anonymous": false,
      "inputs": [
        {
          "indexed": true,
          "internalType": "address",
          "name": "from",
          "type": "address"
        },
        {
          "indexed": true,
          "internalType": "address",
          "name": "to",
          "type": "address"
        },
        {
          "indexed": false,
          "internalType": "uint256",
          "name": "value",
          "type": "uint256"
        }
      ],
      "name": "Transfer",
      "type": "event"
    },
    {
      "inputs": [
        {
          "internalType": "address",
          "name": "owner",
          "type": "address"
        },
        {
          "internalType": "address",
          "name": "spender",
          "type": "address"
        }
      ],
      "name": "allowance",
      "outputs": [
        {
          "internalType": "uint256",
          "name": "",
          "type": "uint256"
        }
      ],
      "stateMutability": "view",
      "type": "function"
    },
    {
      "inputs": [
        {
          "internalType": "address",
          "name": "spender",
          "type": "address"
        },
        {
          "internalType": "uint256",
          "name": "value",
          "type": "uint256"
        }
      ],
      "name": "approve",
      "outputs": [
        {
          "internalType": "bool",
          "name": "",
          "type": "bool"
        }
      ],
      "stateMutability": "nonpayable",
      "type": "function"
    },
    {
      "inputs": [
        {
          "internalType": "address",
          "name": "account",
          "type": "address"
        }
      ],
      "name": "balanceOf",
      "outputs": [
        {
          "internalType": "uint256",
          "name": "",
          "type": "uint256"
        }
      ],
      "stateMutability": "view",
      "type": "function"
    },
    {
      "inputs": [],
      "name": "decimals",
      "outputs": [
        {
          "internalType": "uint8",
          "name": "",
          "type": "uint8"
        }
      ],
      "stateMutability": "view",
      "type": "function"
    },
    {
      "inputs": [],
      "name": "getYieldRate",
      "outputs": [
        {
          "internalType": "uint256",
          "name": "",
          "type": "uint256"
        }
      ],
      "stateMutability": "pure",
      "type": "function"
    },
    {
      "inputs": [],
      "name": "lstBTCToken",
      "outputs": [
        {
          "internalType": "address",
          "name": "",
          "type": "address"
        }
      ],
      "stateMutability": "view",
      "type": "function"
    },
    {
      "inputs": [],
      "name": "name",
      "outputs": [
        {
          "internalType": "string",
          "name": "",
          "type": "string"
        }
      ],
      "stateMutability": "view",
      "type": "function"
    },
    {
      "inputs": [],
      "name": "owner",
      "outputs": [
        {
          "internalType": "address",
          "name": "",
          "type": "address"
        }
      ],
      "stateMutability": "view",
      "type": "function"
    },
    {
      "inputs": [],
      "name": "renounceOwnership",
      "outputs": [],
      "stateMutability": "nonpayable",
      "type": "function"
    },
    {
      "inputs": [],
      "name": "symbol",
      "outputs": [
        {
          "internalType": "string",
          "name": "",
          "type": "string"
        }
      ],
      "stateMutability": "view",
      "type": "function"
    },
    {
      "inputs": [],
      "name": "totalSupply",
      "outputs": [
        {
          "internalType": "uint256",
          "name": "",
          "type": "uint256"
        }
      ],
      "stateMutability": "view",
      "type": "function"
    },
    {
      "inputs": [
        {
          "internalType": "address",
          "name": "to",
          "type": "address"
        },
        {
          "internalType": "uint256",
          "name": "value",
          "type": "uint256"
        }
      ],
      "name": "transfer",
      "outputs": [
        {
          "internalType": "bool",
          "name": "",
          "type": "bool"
        }
      ],
      "stateMutability": "nonpayable",
      "type": "function"
    },
    {
      "inputs": [
        {
          "internalType": "address",
          "name": "from",
          "type": "address"
        },
        {
          "internalType": "address",
          "name": "to",
          "type": "address"
        },
        {
          "internalType": "uint256",
          "name": "value",
          "type": "uint256"
        }
      ],
      "name": "transferFrom",
      "outputs": [
        {
          "internalType": "bool",
          "name": "",
          "type": "bool"
        }
      ],
      "stateMutability": "nonpayable",
      "type": "function"
    },
    {
      "inputs": [
        {
          "internalType": "address",
          "name": "newOwner",
          "type": "address"
        }
      ],
      "name": "transferOwnership",
      "outputs": [],
      "stateMutability": "nonpayable",
      "type": "function"
    },
    {
      "inputs": [
        {
          "internalType": "uint256",
          "name": "amount",
          "type": "uint256"
        }
      ],
      "name": "unwrap",
      "outputs": [],
      "stateMutability": "nonpayable",
      "type": "function"
    },
    {
      "inputs": [
        {
          "internalType": "uint256",
          "name": "amount",
          "type": "uint256"
        }
      ],
      "name": "wrap",
      "outputs": [],
      "stateMutability": "nonpayable",
      "type": "function"
    }
  ],
  "bytecode": "0x60806040523480156200001157600080fd5b5060405162000cf738038062000cf7833981016040819052620000349162000163565b336040518060400160405280601981526020017f5374616e64617264697a6564205969656c64206c7374425443000000000000008152506040518060400160405280600981526020016853592d6c737442544360b81b81525081600390816200009e91906200023c565b506004620000ad82826200023c565b5050506001600160a01b038116620000df57604051631e4fbdf760e01b81526000600482015260240160405180910390fd5b620000ea8162000111565b50600680546001600160a01b0319166001600160a01b039290921691909117905562000308565b600580546001600160a01b038381166001600160a01b0319831681179093556040519116919082907f8be0079c531659141344cd1fd0a4f28419497f9722a3daafe3b4186f6b6457e090600090a35050565b6000602082840312156200017657600080fd5b81516001600160a01b03811681146200018e57600080fd5b9392505050565b634e487b7160e01b600052604160045260246000fd5b600181811c90821680620001c057607f821691505b602082108103620001e157634e487b7160e01b600052602260045260246000fd5b50919050565b601f82111562000237576000816000526020600020601f850160051c81016020861015620002125750805b601f850160051c820191505b8181101562000233578281556001016200021e565b5050505b505050565b81516001600160401b0381111562000258576200025862000195565b6200027081620002698454620001ab565b84620001e7565b602080601f831160018114620002a857600084156200028f5750858301515b600019600386901b1c1916600185901b17855562000233565b600085815260208120601f198616915b82811015620002d957888601518255948401946001909101908401620002b8565b5085821015620002f85787850151600019600388901b60f8161c191681555b5050505050600190811b01905550565b6109df80620003186000396000f3fe608060405234801561001057600080fd5b50600436106101005760003560e01c806395d89b4111610097578063de0e9a3e11610066578063de0e9a3e14610239578063ea598cb01461024c578063f10098991461025f578063f2fde38b1461026757600080fd5b806395d89b41146101d2578063a9059cbb146101da578063b5541949146101ed578063dd62ed3e1461020057600080fd5b8063313ce567116100d3578063313ce5671461016b57806370a082311461017a578063715018a6146101a35780638da5cb5b146101ad57600080fd5b806306fdde0314610105578063095ea7b31461012357806318160ddd1461014657806323b872dd14610158575b600080fd5b61010d61027a565b60405161011a919061080f565b60405180910390f35b61013661013136600461087a565b61030c565b604051901515815260200161011a565b6002545b60405190815260200161011a565b6101366101663660046108a4565b610326565b6040516012815260200161011a565b61014a6101883660046108e0565b6001600160a01b031660009081526020819052604090205490565b6101ab61034a565b005b6005546001600160a01b03165b6040516001600160a01b03909116815260200161011a565b61010d61035e565b6101366101e836600461087a565b61036d565b6006546101ba906001600160a01b031681565b61014a61020e366004610902565b6001600160a01b03918216600090815260016020908152604080832093909416825291909152205490565b6101ab610247366004610935565b61037b565b6101ab61025a366004610935565b6103ec565b61012c61014a565b6101ab6102753660046108e0565b6103f6565b6060600380546102899061094e565b80601f01602080910402602001604051908101604052809291908181526020018280546102b59061094e565b80156103025780601f106102d757610100808354040283529160200191610302565b820191906000526020600020905b8154815290600101906020018083116102e557829003601f168201915b5050505050905090565b60003361031a818585610431565b60019150505b92915050565b600033610334858285610443565b61033f8585856104c2565b506001949350505050565b610352610521565b61035c600061054e565b565b6060600480546102899061094e565b60003361031a8185856104c2565b336000908152602081905260409020548111156103df5760405162461bcd60e51b815260206004820152601760248201527f496e73756666696369656e742053592062616c616e636500000000000000000060448201526064015b60405180910390fd5b6103e933826105a0565b50565b6103e933826105da565b6103fe610521565b6001600160a01b03811661042857604051631e4fbdf760e01b8152600060048201526024016103d6565b6103e98161054e565b61043e8383836001610610565b505050565b6001600160a01b038381166000908152600160209081526040808320938616835292905220546000198110156104bc57818110156104ad57604051637dc7a0d960e11b81526001600160a01b038416600482015260248101829052604481018390526064016103d6565b6104bc84848484036000610610565b50505050565b6001600160a01b0383166104ec57604051634b637e8f60e11b8152600060048201526024016103d6565b6001600160a01b0382166105165760405163ec442f0560e01b8152600060048201526024016103d6565b61043e8383836106e5565b6005546001600160a01b0316331461035c5760405163118cdaa760e01b81523360048201526024016103d6565b600580546001600160a01b038381166001600160a01b0319831681179093556040519116919082907f8be0079c531659141344cd1fd0a4f28419497f9722a3daafe3b4186f6b6457e090600090a35050565b6001600160a01b0382166105ca57604051634b637e8f60e11b8152600060048201526024016103d6565b6105d6826000836106e5565b5050565b6001600160a01b0382166106045760405163ec442f0560e01b8152600060048201526024016103d6565b6105d6600083836106e5565b6001600160a01b03841661063a5760405163e602df0560e01b8152600060048201526024016103d6565b6001600160a01b03831661066457604051634a1406b160e11b8152600060048201526024016103d6565b6001600160a01b03808516600090815260016020908152604080832093871683529290522082905580156104bc57826001600160a01b0316846001600160a01b03167f8c5be1e5ebec7d5bd14f71427d1e84f3dd0314c0f7b2291e5b200ac8c7c3b925846040516106d791815260200190565b60405180910390a350505050565b6001600160a01b0383166107105780600260008282546107059190610988565b909155506107829050565b6001600160a01b038316600090815260208190526040902054818110156107635760405163391434e360e21b81526001600160a01b038516600482015260248101829052604481018390526064016103d6565b6001600160a01b03841660009081526020819052604090209082900390555b6001600160a01b03821661079e576002805482900390556107bd565b6001600160a01b03821660009081526020819052604090208054820190555b816001600160a01b0316836001600160a01b03167fddf252ad1be2c89b69c2b068fc378daa952ba7f163c4a11628f55a4df523b3ef8360405161080291815260200190565b60405180910390a3505050565b60006020808352835180602085015260005b8181101561083d57858101830151858201604001528201610821565b506000604082860101526040601f19601f8301168501019250505092915050565b80356001600160a01b038116811461087557600080fd5b919050565b6000806040838503121561088d57600080fd5b6108968361085e565b946020939093013593505050565b6000806000606084860312156108b957600080fd5b6108c28461085e565b92506108d06020850161085e565b9150604084013590509250925092565b6000602082840312156108f257600080fd5b6108fb8261085e565b9392505050565b6000806040838503121561091557600080fd5b61091e8361085e565b915061092c6020840161085e565b90509250929050565b60006020828403121561094757600080fd5b5035919050565b600181811c9082168061096257607f821691505b60208210810361098257634e487b7160e01b600052602260045260246000fd5b50919050565b8082018082111561032057634e487b7160e01b600052601160045260246000fdfea26469706673582212203bb180efd178febe145818a29a7a4f4c43038c26dbb5bb396ac215a18e8da9b564736f6c63430008180033",
  "linkReferences": {},
  "deployedLinkReferences": {}
}