{
  "_format": "hh-sol-artifact-1",
  "contractName": "YieldTokenization",
  "sourceName": "contracts/YieldTokenization.sol",
  "abi": [
    {
      "inputs": [
        {
          "internalType": "address",
          "name": "_syToken",
          "type": "address"
        }
      ],
      "stateMutability": "nonpayable",
      "type": "constructor"
    },
    {
      "inputs": [
        {
          "internalType": "address",
          "name": "owner",
          "type": "address"
        }
      ],
      "name": "OwnableInvalidOwner",
      "type": "error"
    },
    {
      "inputs": [
        {
          "internalType": "address",
          "name": "account",
          "type": "address"
        }
      ],
      "name": "OwnableUnauthorizedAccount",
      "type": "error"
    },
    {
      "anonymous": false,
      "inputs": [
        {
          "indexed": true,
          "internalType": "address",
          "name": "previousOwner",
          "type": "address"
        },
        {
          "indexed": true,
          "internalType": "address",
          "name": "newOwner",
          "type": "address"
        }
      ],
      "name": "OwnershipTransferred",
      "type": "event"
    },
    {
      "anonymous": false,
      "inputs": [
        {
          "indexed": true,
          "internalType": "address",
          "name": "user",
          "type": "address"
        },
        {
          "indexed": false,
          "internalType": "uint256",
          "name": "amount",
          "type": "uint256"
        },
        {
          "indexed": false,
          "internalType": "uint256",
          "name": "maturity",
          "type": "uint256"
        }
      ],
      "name": "TokensRedeemed",
      "type": "event"
    },
    {
      "anonymous": false,
      "inputs": [
        {
          "indexed": true,
          "internalType": "address",
          "name": "user",
          "type": "address"
        },
        {
          "indexed": false,
          "internalType": "uint256",
          "name": "amount",
          "type": "uint256"
        },
        {
          "indexed": false,
          "internalType": "uint256",
          "name": "maturity",
          "type": "uint256"
        }
      ],
      "name": "TokensSplit",
      "type": "event"
    },
    {
      "inputs": [
        {
          "internalType": "uint256",
          "name": "maturityTimestamp",
          "type": "uint256"
        }
      ],
      "name": "createMaturity",
      "outputs": [],
      "stateMutability": "nonpayable",
      "type": "function"
    },
    {
      "inputs": [],
      "name": "getMaturities",
      "outputs": [
        {
          "internalType": "uint256[]",
          "name": "",
          "type": "uint256[]"
        }
      ],
      "stateMutability": "view",
      "type": "function"
    },
    {
      "inputs": [
        {
          "internalType": "uint256",
          "name": "",
          "type": "uint256"
        }
      ],
      "name": "maturities",
      "outputs": [
        {
          "internalType": "uint256",
          "name": "",
          "type": "uint256"
        }
      ],
      "stateMutability": "view",
      "type": "function"
    },
    {
      "inputs": [],
      "name": "owner",
      "outputs": [
        {
          "internalType": "address",
          "name": "",
          "type": "address"
        }
      ],
      "stateMutability": "view",
      "type": "function"
    },
    {
      "inputs": [
        {
          "internalType": "uint256",
          "name": "",
          "type": "uint256"
        }
      ],
      "name": "ptTokens",
      "outputs": [
        {
          "internalType": "address",
          "name": "",
          "type": "address"
        }
      ],
      "stateMutability": "view",
      "type": "function"
    },
    {
      "inputs": [
        {
          "internalType": "uint256",
          "name": "amount",
          "type": "uint256"
        },
        {
          "internalType": "uint256",
          "name": "maturity",
          "type": "uint256"
        }
      ],
      "name": "redeem",
      "outputs": [],
      "stateMutability": "nonpayable",
      "type": "function"
    },
    {
      "inputs": [],
      "name": "renounceOwnership",
      "outputs": [],
      "stateMutability": "nonpayable",
      "type": "function"
    },
    {
      "inputs": [
        {
          "internalType": "uint256",
          "name": "amount",
          "type": "uint256"
        },
        {
          "internalType": "uint256",
          "name": "maturity",
          "type": "uint256"
        }
      ],
      "name": "split",
      "outputs": [],
      "stateMutability": "nonpayable",
      "type": "function"
    },
    {
      "inputs": [],
      "name": "syToken",
      "outputs": [
        {
          "internalType": "contract SYToken",
          "name": "",
          "type": "address"
        }
      ],
      "stateMutability": "view",
      "type": "function"
    },
    {
      "inputs": [
        {
          "internalType": "address",
          "name": "newOwner",
          "type": "address"
        }
      ],
      "name": "transferOwnership",
      "outputs": [],
      "stateMutability": "nonpayable",
      "type": "function"
    },
    {
      "inputs": [
        {
          "internalType": "uint256",
          "name": "",
          "type": "uint256"
        }
      ],
      "name": "ytTokens",
      "outputs": [
        {
          "internalType": "address",
          "name": "",
          "type": "address"
        }
      ],
      "stateMutability": "view",
      "type": "function"
    }
  ],
  "bytecode": "0x60806040523480156200001157600080fd5b50604051620042b0380380620042b0833981016040819052620000349162000300565b33806200005c57604051631e4fbdf760e01b8152600060048201526024015b60405180910390fd5b6200006781620000a3565b50600180546001600160a01b0319166001600160a01b0383161790556200009c620000964262278d0062000332565b620000f3565b506200035a565b600080546001600160a01b038381166001600160a01b0319831681178455604051919092169283917f8be0079c531659141344cd1fd0a4f28419497f9722a3daafe3b4186f6b6457e09190a35050565b620000fd620002b3565b4281116200014e5760405162461bcd60e51b815260206004820152601a60248201527f4d61747572697479206d75737420626520696e20667574757265000000000000604482015260640162000053565b6000816040516200015f90620002e4565b60608082526009908201819052685054207379434f524560b81b608083015260a0602083018190528201526850542d7379434f524560b81b60c0820152604081019190915260e001604051809103906000f080158015620001c4573d6000803e3d6000fd5b509050600082604051620001d890620002f2565b60608082526009908201819052685954207379434f524560b81b608083015260a0602083018190528201526859542d7379434f524560b81b60c0820152604081019190915260e001604051809103906000f0801580156200023d573d6000803e3d6000fd5b50600084815260026020908152604080832080546001600160a01b039788166001600160a01b031991821617909155600390925282208054959093169416939093179055506004805460018101825591527f8a35acfbc15ff81a39ae7d344fd709f28e8600b4aa8c65c6b64bfe7fe36bd19b0155565b6000546001600160a01b03163314620002e25760405163118cdaa760e01b815233600482015260240162000053565b565b610ce880620028e083390190565b610ce880620035c883390190565b6000602082840312156200031357600080fd5b81516001600160a01b03811681146200032b57600080fd5b9392505050565b808201808211156200035457634e487b7160e01b600052601160045260246000fd5b92915050565b612576806200036a6000396000f3fe60806040523480156200001157600080fd5b5060043610620000b75760003560e01c8063715018a6116200007a578063715018a614620001675780637cbc237314620001715780638da5cb5b1462000188578063928c91d5146200019a578063d52e2b7a14620001c0578063f2fde38b14620001ec57600080fd5b8063191402c914620000bc578063287b448d14620000de5780633784ba6e146200010b57806339aba32f14620001245780634b19becc1462000150575b600080fd5b620000c662000203565b604051620000d5919062000a7d565b60405180910390f35b600154620000f2906001600160a01b031681565b6040516001600160a01b039091168152602001620000d5565b620001226200011c36600462000ac3565b6200025d565b005b620000f26200013536600462000ac3565b6003602052600090815260409020546001600160a01b031681565b620001226200016136600462000add565b62000421565b62000122620006dd565b620001226200018236600462000add565b620006f5565b6000546001600160a01b0316620000f2565b620001b1620001ab36600462000ac3565b6200097c565b604051908152602001620000d5565b620000f2620001d136600462000ac3565b6002602052600090815260409020546001600160a01b031681565b62000122620001fd36600462000b00565b6200099e565b606060048054806020026020016040519081016040528092919081815260200182805480156200025357602002820191906000526020600020905b8154815260200190600101908083116200023e575b5050505050905090565b62000267620009e2565b428111620002bc5760405162461bcd60e51b815260206004820152601a60248201527f4d61747572697479206d75737420626520696e2066757475726500000000000060448201526064015b60405180910390fd5b600081604051620002cd9062000a61565b60608082526009908201819052685054207379434f524560b81b608083015260a0602083018190528201526850542d7379434f524560b81b60c0820152604081019190915260e001604051809103906000f08015801562000332573d6000803e3d6000fd5b509050600082604051620003469062000a6f565b60608082526009908201819052685954207379434f524560b81b608083015260a0602083018190528201526859542d7379434f524560b81b60c0820152604081019190915260e001604051809103906000f080158015620003ab573d6000803e3d6000fd5b50600084815260026020908152604080832080546001600160a01b039788166001600160a01b031991821617909155600390925282208054959093169416939093179055506004805460018101825591527f8a35acfbc15ff81a39ae7d344fd709f28e8600b4aa8c65c6b64bfe7fe36bd19b0155565b6000818152600260205260409020546001600160a01b03166200047a5760405162461bcd60e51b815260206004820152601060248201526f496e76616c6964206d6174757269747960801b6044820152606401620002b3565b6001546040516370a0823160e01b815233600482015283916001600160a01b0316906370a0823190602401602060405180830381865afa158015620004c3573d6000803e3d6000fd5b505050506040513d601f19601f82011682018060405250810190620004e9919062000b32565b1015620005395760405162461bcd60e51b815260206004820152601760248201527f496e73756666696369656e742053592062616c616e63650000000000000000006044820152606401620002b3565b6001546040516323b872dd60e01b8152336004820152306024820152604481018490526001600160a01b03909116906323b872dd906064016020604051808303816000875af115801562000591573d6000803e3d6000fd5b505050506040513d601f19601f82011682018060405250810190620005b7919062000b4c565b50600081815260026020526040908190205490516340c10f1960e01b8152336004820152602481018490526001600160a01b03909116906340c10f1990604401600060405180830381600087803b1580156200061257600080fd5b505af115801562000627573d6000803e3d6000fd5b505050600082815260036020526040908190205490516340c10f1960e01b8152336004820152602481018590526001600160a01b0390911691506340c10f1990604401600060405180830381600087803b1580156200068557600080fd5b505af11580156200069a573d6000803e3d6000fd5b505060408051858152602081018590523393507fdea686eeec92f1efeb62216bb5591fcb5095d344b0fdd61a2d6289ecee1e3a7a92500160405180910390a25050565b620006e7620009e2565b620006f3600062000a11565b565b80421015620007385760405162461bcd60e51b815260206004820152600e60248201526d4e6f7420796574206d617475726560901b6044820152606401620002b3565b6000818152600260205260409020546001600160a01b0316620007915760405162461bcd60e51b815260206004820152601060248201526f496e76616c6964206d6174757269747960801b6044820152606401620002b3565b600081815260026020526040908190205490516370a0823160e01b81523360048201526001600160a01b0390911690839082906370a0823190602401602060405180830381865afa158015620007eb573d6000803e3d6000fd5b505050506040513d601f19601f8201168201806040525081019062000811919062000b32565b1015620008615760405162461bcd60e51b815260206004820152601760248201527f496e73756666696369656e742050542062616c616e63650000000000000000006044820152606401620002b3565b60405163079cc67960e41b8152336004820152602481018490526001600160a01b038216906379cc679090604401600060405180830381600087803b158015620008aa57600080fd5b505af1158015620008bf573d6000803e3d6000fd5b505060015460405163a9059cbb60e01b8152336004820152602481018790526001600160a01b03909116925063a9059cbb91506044016020604051808303816000875af115801562000915573d6000803e3d6000fd5b505050506040513d601f19601f820116820180604052508101906200093b919062000b4c565b50604080518481526020810184905233917fd171fb179b26c49e23fe46eddd44d3048a1ad277b62144ac0725fbcf1dbf6d52910160405180910390a2505050565b600481815481106200098d57600080fd5b600091825260209091200154905081565b620009a8620009e2565b6001600160a01b038116620009d457604051631e4fbdf760e01b815260006004820152602401620002b3565b620009df8162000a11565b50565b6000546001600160a01b03163314620006f35760405163118cdaa760e01b8152336004820152602401620002b3565b600080546001600160a01b038381166001600160a01b0319831681178455604051919092169283917f8be0079c531659141344cd1fd0a4f28419497f9722a3daafe3b4186f6b6457e09190a35050565b610ce88062000b7183390190565b610ce8806200185983390190565b6020808252825182820181905260009190848201906040850190845b8181101562000ab75783518352928401929184019160010162000a99565b50909695505050505050565b60006020828403121562000ad657600080fd5b5035919050565b6000806040838503121562000af157600080fd5b50508035926020909101359150565b60006020828403121562000b1357600080fd5b81356001600160a01b038116811462000b2b57600080fd5b9392505050565b60006020828403121562000b4557600080fd5b5051919050565b60006020828403121562000b5f57600080fd5b8151801515811462000b2b57600080fdfe60806040523480156200001157600080fd5b5060405162000ce838038062000ce88339810160408190526200003491620001b8565b3383836003620000458382620002bc565b506004620000548282620002bc565b5050506001600160a01b0381166200008657604051631e4fbdf760e01b81526000600482015260240160405180910390fd5b62000091816200009e565b5060065550620003889050565b600580546001600160a01b038381166001600160a01b0319831681179093556040519116919082907f8be0079c531659141344cd1fd0a4f28419497f9722a3daafe3b4186f6b6457e090600090a35050565b634e487b7160e01b600052604160045260246000fd5b600082601f8301126200011857600080fd5b81516001600160401b0380821115620001355762000135620000f0565b604051601f8301601f19908116603f01168101908282118183101715620001605762000160620000f0565b81604052838152602092508660208588010111156200017e57600080fd5b600091505b83821015620001a2578582018301518183018401529082019062000183565b6000602085830101528094505050505092915050565b600080600060608486031215620001ce57600080fd5b83516001600160401b0380821115620001e657600080fd5b620001f48783880162000106565b945060208601519150808211156200020b57600080fd5b506200021a8682870162000106565b925050604084015190509250925092565b600181811c908216806200024057607f821691505b6020821081036200026157634e487b7160e01b600052602260045260246000fd5b50919050565b601f821115620002b7576000816000526020600020601f850160051c81016020861015620002925750805b601f850160051c820191505b81811015620002b3578281556001016200029e565b5050505b505050565b81516001600160401b03811115620002d857620002d8620000f0565b620002f081620002e984546200022b565b8462000267565b602080601f8311600181146200032857600084156200030f5750858301515b600019600386901b1c1916600185901b178555620002b3565b600085815260208120601f198616915b82811015620003595788860151825594840194600190910190840162000338565b5085821015620003785787850151600019600388901b60f8161c191681555b5050505050600190811b01905550565b61095080620003986000396000f3fe608060405234801561001057600080fd5b50600436106100f55760003560e01c806370a082311161009757806395d89b411161006657806395d89b41146101ec578063a9059cbb146101f4578063dd62ed3e14610207578063f2fde38b1461024057600080fd5b806370a082311461018d578063715018a6146101b657806379cc6790146101be5780638da5cb5b146101d157600080fd5b8063204f83f9116100d3578063204f83f91461014d57806323b872dd14610156578063313ce5671461016957806340c10f191461017857600080fd5b806306fdde03146100fa578063095ea7b31461011857806318160ddd1461013b575b600080fd5b610102610253565b60405161010f9190610799565b60405180910390f35b61012b610126366004610804565b6102e5565b604051901515815260200161010f565b6002545b60405190815260200161010f565b61013f60065481565b61012b61016436600461082e565b6102ff565b6040516012815260200161010f565b61018b610186366004610804565b610323565b005b61013f61019b36600461086a565b6001600160a01b031660009081526020819052604090205490565b61018b610339565b61018b6101cc366004610804565b61034d565b6005546040516001600160a01b03909116815260200161010f565b61010261035f565b61012b610202366004610804565b61036e565b61013f61021536600461088c565b6001600160a01b03918216600090815260016020908152604080832093909416825291909152205490565b61018b61024e36600461086a565b61037c565b606060038054610262906108bf565b80601f016020809104026020016040519081016040528092919081815260200182805461028e906108bf565b80156102db5780601f106102b0576101008083540402835291602001916102db565b820191906000526020600020905b8154815290600101906020018083116102be57829003601f168201915b5050505050905090565b6000336102f38185856103bf565b60019150505b92915050565b60003361030d8582856103d1565b610318858585610450565b506001949350505050565b61032b6104af565b61033582826104dc565b5050565b6103416104af565b61034b6000610512565b565b6103556104af565b6103358282610564565b606060048054610262906108bf565b6000336102f3818585610450565b6103846104af565b6001600160a01b0381166103b357604051631e4fbdf760e01b8152600060048201526024015b60405180910390fd5b6103bc81610512565b50565b6103cc838383600161059a565b505050565b6001600160a01b0383811660009081526001602090815260408083209386168352929052205460001981101561044a578181101561043b57604051637dc7a0d960e11b81526001600160a01b038416600482015260248101829052604481018390526064016103aa565b61044a8484848403600061059a565b50505050565b6001600160a01b03831661047a57604051634b637e8f60e11b8152600060048201526024016103aa565b6001600160a01b0382166104a45760405163ec442f0560e01b8152600060048201526024016103aa565b6103cc83838361066f565b6005546001600160a01b0316331461034b5760405163118cdaa760e01b81523360048201526024016103aa565b6001600160a01b0382166105065760405163ec442f0560e01b8152600060048201526024016103aa565b6103356000838361066f565b600580546001600160a01b038381166001600160a01b0319831681179093556040519116919082907f8be0079c531659141344cd1fd0a4f28419497f9722a3daafe3b4186f6b6457e090600090a35050565b6001600160a01b03821661058e57604051634b637e8f60e11b8152600060048201526024016103aa565b6103358260008361066f565b6001600160a01b0384166105c45760405163e602df0560e01b8152600060048201526024016103aa565b6001600160a01b0383166105ee57604051634a1406b160e11b8152600060048201526024016103aa565b6001600160a01b038085166000908152600160209081526040808320938716835292905220829055801561044a57826001600160a01b0316846001600160a01b03167f8c5be1e5ebec7d5bd14f71427d1e84f3dd0314c0f7b2291e5b200ac8c7c3b9258460405161066191815260200190565b60405180910390a350505050565b6001600160a01b03831661069a57806002600082825461068f91906108f9565b9091555061070c9050565b6001600160a01b038316600090815260208190526040902054818110156106ed5760405163391434e360e21b81526001600160a01b038516600482015260248101829052604481018390526064016103aa565b6001600160a01b03841660009081526020819052604090209082900390555b6001600160a01b03821661072857600280548290039055610747565b6001600160a01b03821660009081526020819052604090208054820190555b816001600160a01b0316836001600160a01b03167fddf252ad1be2c89b69c2b068fc378daa952ba7f163c4a11628f55a4df523b3ef8360405161078c91815260200190565b60405180910390a3505050565b60006020808352835180602085015260005b818110156107c7578581018301518582016040015282016107ab565b506000604082860101526040601f19601f8301168501019250505092915050565b80356001600160a01b03811681146107ff57600080fd5b919050565b6000806040838503121561081757600080fd5b610820836107e8565b946020939093013593505050565b60008060006060848603121561084357600080fd5b61084c846107e8565b925061085a602085016107e8565b9150604084013590509250925092565b60006020828403121561087c57600080fd5b610885826107e8565b9392505050565b6000806040838503121561089f57600080fd5b6108a8836107e8565b91506108b6602084016107e8565b90509250929050565b600181811c908216806108d357607f821691505b6020821081036108f357634e487b7160e01b600052602260045260246000fd5b50919050565b808201808211156102f957634e487b7160e01b600052601160045260246000fdfea2646970667358221220386e977ef46796f50ac8d0029c0e7dedc30b93001245d435cb0934e6466a54ce64736f6c6343000818003360806040523480156200001157600080fd5b5060405162000ce838038062000ce88339810160408190526200003491620001b8565b3383836003620000458382620002bc565b506004620000548282620002bc565b5050506001600160a01b0381166200008657604051631e4fbdf760e01b81526000600482015260240160405180910390fd5b62000091816200009e565b5060065550620003889050565b600580546001600160a01b038381166001600160a01b0319831681179093556040519116919082907f8be0079c531659141344cd1fd0a4f28419497f9722a3daafe3b4186f6b6457e090600090a35050565b634e487b7160e01b600052604160045260246000fd5b600082601f8301126200011857600080fd5b81516001600160401b0380821115620001355762000135620000f0565b604051601f8301601f19908116603f01168101908282118183101715620001605762000160620000f0565b81604052838152602092508660208588010111156200017e57600080fd5b600091505b83821015620001a2578582018301518183018401529082019062000183565b6000602085830101528094505050505092915050565b600080600060608486031215620001ce57600080fd5b83516001600160401b0380821115620001e657600080fd5b620001f48783880162000106565b945060208601519150808211156200020b57600080fd5b506200021a8682870162000106565b925050604084015190509250925092565b600181811c908216806200024057607f821691505b6020821081036200026157634e487b7160e01b600052602260045260246000fd5b50919050565b601f821115620002b7576000816000526020600020601f850160051c81016020861015620002925750805b601f850160051c820191505b81811015620002b3578281556001016200029e565b5050505b505050565b81516001600160401b03811115620002d857620002d8620000f0565b620002f081620002e984546200022b565b8462000267565b602080601f8311600181146200032857600084156200030f5750858301515b600019600386901b1c1916600185901b178555620002b3565b600085815260208120601f198616915b82811015620003595788860151825594840194600190910190840162000338565b5085821015620003785787850151600019600388901b60f8161c191681555b5050505050600190811b01905550565b61095080620003986000396000f3fe608060405234801561001057600080fd5b50600436106100f55760003560e01c806370a082311161009757806395d89b411161006657806395d89b41146101ec578063a9059cbb146101f4578063dd62ed3e14610207578063f2fde38b1461024057600080fd5b806370a082311461018d578063715018a6146101b657806379cc6790146101be5780638da5cb5b146101d157600080fd5b8063204f83f9116100d3578063204f83f91461014d57806323b872dd14610156578063313ce5671461016957806340c10f191461017857600080fd5b806306fdde03146100fa578063095ea7b31461011857806318160ddd1461013b575b600080fd5b610102610253565b60405161010f9190610799565b60405180910390f35b61012b610126366004610804565b6102e5565b604051901515815260200161010f565b6002545b60405190815260200161010f565b61013f60065481565b61012b61016436600461082e565b6102ff565b6040516012815260200161010f565b61018b610186366004610804565b610323565b005b61013f61019b36600461086a565b6001600160a01b031660009081526020819052604090205490565b61018b610339565b61018b6101cc366004610804565b61034d565b6005546040516001600160a01b03909116815260200161010f565b61010261035f565b61012b610202366004610804565b61036e565b61013f61021536600461088c565b6001600160a01b03918216600090815260016020908152604080832093909416825291909152205490565b61018b61024e36600461086a565b61037c565b606060038054610262906108bf565b80601f016020809104026020016040519081016040528092919081815260200182805461028e906108bf565b80156102db5780601f106102b0576101008083540402835291602001916102db565b820191906000526020600020905b8154815290600101906020018083116102be57829003601f168201915b5050505050905090565b6000336102f38185856103bf565b60019150505b92915050565b60003361030d8582856103d1565b610318858585610450565b506001949350505050565b61032b6104af565b61033582826104dc565b5050565b6103416104af565b61034b6000610512565b565b6103556104af565b6103358282610564565b606060048054610262906108bf565b6000336102f3818585610450565b6103846104af565b6001600160a01b0381166103b357604051631e4fbdf760e01b8152600060048201526024015b60405180910390fd5b6103bc81610512565b50565b6103cc838383600161059a565b505050565b6001600160a01b0383811660009081526001602090815260408083209386168352929052205460001981101561044a578181101561043b57604051637dc7a0d960e11b81526001600160a01b038416600482015260248101829052604481018390526064016103aa565b61044a8484848403600061059a565b50505050565b6001600160a01b03831661047a57604051634b637e8f60e11b8152600060048201526024016103aa565b6001600160a01b0382166104a45760405163ec442f0560e01b8152600060048201526024016103aa565b6103cc83838361066f565b6005546001600160a01b0316331461034b5760405163118cdaa760e01b81523360048201526024016103aa565b6001600160a01b0382166105065760405163ec442f0560e01b8152600060048201526024016103aa565b6103356000838361066f565b600580546001600160a01b038381166001600160a01b0319831681179093556040519116919082907f8be0079c531659141344cd1fd0a4f28419497f9722a3daafe3b4186f6b6457e090600090a35050565b6001600160a01b03821661058e57604051634b637e8f60e11b8152600060048201526024016103aa565b6103358260008361066f565b6001600160a01b0384166105c45760405163e602df0560e01b8152600060048201526024016103aa565b6001600160a01b0383166105ee57604051634a1406b160e11b8152600060048201526024016103aa565b6001600160a01b038085166000908152600160209081526040808320938716835292905220829055801561044a57826001600160a01b0316846001600160a01b03167f8c5be1e5ebec7d5bd14f71427d1e84f3dd0314c0f7b2291e5b200ac8c7c3b9258460405161066191815260200190565b60405180910390a350505050565b6001600160a01b03831661069a57806002600082825461068f91906108f9565b9091555061070c9050565b6001600160a01b038316600090815260208190526040902054818110156106ed5760405163391434e360e21b81526001600160a01b038516600482015260248101829052604481018390526064016103aa565b6001600160a01b03841660009081526020819052604090209082900390555b6001600160a01b03821661072857600280548290039055610747565b6001600160a01b03821660009081526020819052604090208054820190555b816001600160a01b0316836001600160a01b03167fddf252ad1be2c89b69c2b068fc378daa952ba7f163c4a11628f55a4df523b3ef8360405161078c91815260200190565b60405180910390a3505050565b60006020808352835180602085015260005b818110156107c7578581018301518582016040015282016107ab565b506000604082860101526040601f19601f8301168501019250505092915050565b80356001600160a01b03811681146107ff57600080fd5b919050565b6000806040838503121561081757600080fd5b610820836107e8565b946020939093013593505050565b60008060006060848603121561084357600080fd5b61084c846107e8565b925061085a602085016107e8565b9150604084013590509250925092565b60006020828403121561087c57600080fd5b610885826107e8565b9392505050565b6000806040838503121561089f57600080fd5b6108a8836107e8565b91506108b6602084016107e8565b90509250929050565b600181811c908216806108d357607f821691505b6020821081036108f357634e487b7160e01b600052602260045260246000fd5b50919050565b808201808211156102f957634e487b7160e01b600052601160045260246000fdfea26469706673582212200c5e856b07a589cf29962e75d6cc5812eb0a5ad41e348c5f76ac035fa8777c8964736f6c63430008180033a26469706673582212208e8ecbcdd4b9cd637bbdb17255a7f5a1ae65c17c456f47dd99a46bafe0e29aed64736f6c6343000818003360806040523480156200001157600080fd5b5060405162000ce838038062000ce88339810160408190526200003491620001b8565b3383836003620000458382620002bc565b506004620000548282620002bc565b5050506001600160a01b0381166200008657604051631e4fbdf760e01b81526000600482015260240160405180910390fd5b62000091816200009e565b5060065550620003889050565b600580546001600160a01b038381166001600160a01b0319831681179093556040519116919082907f8be0079c531659141344cd1fd0a4f28419497f9722a3daafe3b4186f6b6457e090600090a35050565b634e487b7160e01b600052604160045260246000fd5b600082601f8301126200011857600080fd5b81516001600160401b0380821115620001355762000135620000f0565b604051601f8301601f19908116603f01168101908282118183101715620001605762000160620000f0565b81604052838152602092508660208588010111156200017e57600080fd5b600091505b83821015620001a2578582018301518183018401529082019062000183565b6000602085830101528094505050505092915050565b600080600060608486031215620001ce57600080fd5b83516001600160401b0380821115620001e657600080fd5b620001f48783880162000106565b945060208601519150808211156200020b57600080fd5b506200021a8682870162000106565b925050604084015190509250925092565b600181811c908216806200024057607f821691505b6020821081036200026157634e487b7160e01b600052602260045260246000fd5b50919050565b601f821115620002b7576000816000526020600020601f850160051c81016020861015620002925750805b601f850160051c820191505b81811015620002b3578281556001016200029e565b5050505b505050565b81516001600160401b03811115620002d857620002d8620000f0565b620002f081620002e984546200022b565b8462000267565b602080601f8311600181146200032857600084156200030f5750858301515b600019600386901b1c1916600185901b178555620002b3565b600085815260208120601f198616915b82811015620003595788860151825594840194600190910190840162000338565b5085821015620003785787850151600019600388901b60f8161c191681555b5050505050600190811b01905550565b61095080620003986000396000f3fe608060405234801561001057600080fd5b50600436106100f55760003560e01c806370a082311161009757806395d89b411161006657806395d89b41146101ec578063a9059cbb146101f4578063dd62ed3e14610207578063f2fde38b1461024057600080fd5b806370a082311461018d578063715018a6146101b657806379cc6790146101be5780638da5cb5b146101d157600080fd5b8063204f83f9116100d3578063204f83f91461014d57806323b872dd14610156578063313ce5671461016957806340c10f191461017857600080fd5b806306fdde03146100fa578063095ea7b31461011857806318160ddd1461013b575b600080fd5b610102610253565b60405161010f9190610799565b60405180910390f35b61012b610126366004610804565b6102e5565b604051901515815260200161010f565b6002545b60405190815260200161010f565b61013f60065481565b61012b61016436600461082e565b6102ff565b6040516012815260200161010f565b61018b610186366004610804565b610323565b005b61013f61019b36600461086a565b6001600160a01b031660009081526020819052604090205490565b61018b610339565b61018b6101cc366004610804565b61034d565b6005546040516001600160a01b03909116815260200161010f565b61010261035f565b61012b610202366004610804565b61036e565b61013f61021536600461088c565b6001600160a01b03918216600090815260016020908152604080832093909416825291909152205490565b61018b61024e36600461086a565b61037c565b606060038054610262906108bf565b80601f016020809104026020016040519081016040528092919081815260200182805461028e906108bf565b80156102db5780601f106102b0576101008083540402835291602001916102db565b820191906000526020600020905b8154815290600101906020018083116102be57829003601f168201915b5050505050905090565b6000336102f38185856103bf565b60019150505b92915050565b60003361030d8582856103d1565b610318858585610450565b506001949350505050565b61032b6104af565b61033582826104dc565b5050565b6103416104af565b61034b6000610512565b565b6103556104af565b6103358282610564565b606060048054610262906108bf565b6000336102f3818585610450565b6103846104af565b6001600160a01b0381166103b357604051631e4fbdf760e01b8152600060048201526024015b60405180910390fd5b6103bc81610512565b50565b6103cc838383600161059a565b505050565b6001600160a01b0383811660009081526001602090815260408083209386168352929052205460001981101561044a578181101561043b57604051637dc7a0d960e11b81526001600160a01b038416600482015260248101829052604481018390526064016103aa565b61044a8484848403600061059a565b50505050565b6001600160a01b03831661047a57604051634b637e8f60e11b8152600060048201526024016103aa565b6001600160a01b0382166104a45760405163ec442f0560e01b8152600060048201526024016103aa565b6103cc83838361066f565b6005546001600160a01b0316331461034b5760405163118cdaa760e01b81523360048201526024016103aa565b6001600160a01b0382166105065760405163ec442f0560e01b8152600060048201526024016103aa565b6103356000838361066f565b600580546001600160a01b038381166001600160a01b0319831681179093556040519116919082907f8be0079c531659141344cd1fd0a4f28419497f9722a3daafe3b4186f6b6457e090600090a35050565b6001600160a01b03821661058e57604051634b637e8f60e11b8152600060048201526024016103aa565b6103358260008361066f565b6001600160a01b0384166105c45760405163e602df0560e01b8152600060048201526024016103aa565b6001600160a01b0383166105ee57604051634a1406b160e11b8152600060048201526024016103aa565b6001600160a01b038085166000908152600160209081526040808320938716835292905220829055801561044a57826001600160a01b0316846001600160a01b03167f8c5be1e5ebec7d5bd14f71427d1e84f3dd0314c0f7b2291e5b200ac8c7c3b9258460405161066191815260200190565b60405180910390a350505050565b6001600160a01b03831661069a57806002600082825461068f91906108f9565b9091555061070c9050565b6001600160a01b038316600090815260208190526040902054818110156106ed5760405163391434e360e21b81526001600160a01b038516600482015260248101829052604481018390526064016103aa565b6001600160a01b03841660009081526020819052604090209082900390555b6001600160a01b03821661072857600280548290039055610747565b6001600160a01b03821660009081526020819052604090208054820190555b816001600160a01b0316836001600160a01b03167fddf252ad1be2c89b69c2b068fc378daa952ba7f163c4a11628f55a4df523b3ef8360405161078c91815260200190565b60405180910390a3505050565b60006020808352835180602085015260005b818110156107c7578581018301518582016040015282016107ab565b506000604082860101526040601f19601f8301168501019250505092915050565b80356001600160a01b03811681146107ff57600080fd5b919050565b6000806040838503121561081757600080fd5b610820836107e8565b946020939093013593505050565b60008060006060848603121561084357600080fd5b61084c846107e8565b925061085a602085016107e8565b9150604084013590509250925092565b60006020828403121561087c57600080fd5b610885826107e8565b9392505050565b6000806040838503121561089f57600080fd5b6108a8836107e8565b91506108b6602084016107e8565b90509250929050565b600181811c908216806108d357607f821691505b6020821081036108f357634e487b7160e01b600052602260045260246000fd5b50919050565b808201808211156102f957634e487b7160e01b600052601160045260246000fdfea2646970667358221220386e977ef46796f50ac8d0029c0e7dedc30b93001245d435cb0934e6466a54ce64736f6c6343000818003360806040523480156200001157600080fd5b5060405162000ce838038062000ce88339810160408190526200003491620001b8565b3383836003620000458382620002bc565b506004620000548282620002bc565b5050506001600160a01b0381166200008657604051631e4fbdf760e01b81526000600482015260240160405180910390fd5b62000091816200009e565b5060065550620003889050565b600580546001600160a01b038381166001600160a01b0319831681179093556040519116919082907f8be0079c531659141344cd1fd0a4f28419497f9722a3daafe3b4186f6b6457e090600090a35050565b634e487b7160e01b600052604160045260246000fd5b600082601f8301126200011857600080fd5b81516001600160401b0380821115620001355762000135620000f0565b604051601f8301601f19908116603f01168101908282118183101715620001605762000160620000f0565b81604052838152602092508660208588010111156200017e57600080fd5b600091505b83821015620001a2578582018301518183018401529082019062000183565b6000602085830101528094505050505092915050565b600080600060608486031215620001ce57600080fd5b83516001600160401b0380821115620001e657600080fd5b620001f48783880162000106565b945060208601519150808211156200020b57600080fd5b506200021a8682870162000106565b925050604084015190509250925092565b600181811c908216806200024057607f821691505b6020821081036200026157634e487b7160e01b600052602260045260246000fd5b50919050565b601f821115620002b7576000816000526020600020601f850160051c81016020861015620002925750805b601f850160051c820191505b81811015620002b3578281556001016200029e565b5050505b505050565b81516001600160401b03811115620002d857620002d8620000f0565b620002f081620002e984546200022b565b8462000267565b602080601f8311600181146200032857600084156200030f5750858301515b600019600386901b1c1916600185901b178555620002b3565b600085815260208120601f198616915b82811015620003595788860151825594840194600190910190840162000338565b5085821015620003785787850151600019600388901b60f8161c191681555b5050505050600190811b01905550565b61095080620003986000396000f3fe608060405234801561001057600080fd5b50600436106100f55760003560e01c806370a082311161009757806395d89b411161006657806395d89b41146101ec578063a9059cbb146101f4578063dd62ed3e14610207578063f2fde38b1461024057600080fd5b806370a082311461018d578063715018a6146101b657806379cc6790146101be5780638da5cb5b146101d157600080fd5b8063204f83f9116100d3578063204f83f91461014d57806323b872dd14610156578063313ce5671461016957806340c10f191461017857600080fd5b806306fdde03146100fa578063095ea7b31461011857806318160ddd1461013b575b600080fd5b610102610253565b60405161010f9190610799565b60405180910390f35b61012b610126366004610804565b6102e5565b604051901515815260200161010f565b6002545b60405190815260200161010f565b61013f60065481565b61012b61016436600461082e565b6102ff565b6040516012815260200161010f565b61018b610186366004610804565b610323565b005b61013f61019b36600461086a565b6001600160a01b031660009081526020819052604090205490565b61018b610339565b61018b6101cc366004610804565b61034d565b6005546040516001600160a01b03909116815260200161010f565b61010261035f565b61012b610202366004610804565b61036e565b61013f61021536600461088c565b6001600160a01b03918216600090815260016020908152604080832093909416825291909152205490565b61018b61024e36600461086a565b61037c565b606060038054610262906108bf565b80601f016020809104026020016040519081016040528092919081815260200182805461028e906108bf565b80156102db5780601f106102b0576101008083540402835291602001916102db565b820191906000526020600020905b8154815290600101906020018083116102be57829003601f168201915b5050505050905090565b6000336102f38185856103bf565b60019150505b92915050565b60003361030d8582856103d1565b610318858585610450565b506001949350505050565b61032b6104af565b61033582826104dc565b5050565b6103416104af565b61034b6000610512565b565b6103556104af565b6103358282610564565b606060048054610262906108bf565b6000336102f3818585610450565b6103846104af565b6001600160a01b0381166103b357604051631e4fbdf760e01b8152600060048201526024015b60405180910390fd5b6103bc81610512565b50565b6103cc838383600161059a565b505050565b6001600160a01b0383811660009081526001602090815260408083209386168352929052205460001981101561044a578181101561043b57604051637dc7a0d960e11b81526001600160a01b038416600482015260248101829052604481018390526064016103aa565b61044a8484848403600061059a565b50505050565b6001600160a01b03831661047a57604051634b637e8f60e11b8152600060048201526024016103aa565b6001600160a01b0382166104a45760405163ec442f0560e01b8152600060048201526024016103aa565b6103cc83838361066f565b6005546001600160a01b0316331461034b5760405163118cdaa760e01b81523360048201526024016103aa565b6001600160a01b0382166105065760405163ec442f0560e01b8152600060048201526024016103aa565b6103356000838361066f565b600580546001600160a01b038381166001600160a01b0319831681179093556040519116919082907f8be0079c531659141344cd1fd0a4f28419497f9722a3daafe3b4186f6b6457e090600090a35050565b6001600160a01b03821661058e57604051634b637e8f60e11b8152600060048201526024016103aa565b6103358260008361066f565b6001600160a01b0384166105c45760405163e602df0560e01b8152600060048201526024016103aa565b6001600160a01b0383166105ee57604051634a1406b160e11b8152600060048201526024016103aa565b6001600160a01b038085166000908152600160209081526040808320938716835292905220829055801561044a57826001600160a01b0316846001600160a01b03167f8c5be1e5ebec7d5bd14f71427d1e84f3dd0314c0f7b2291e5b200ac8c7c3b9258460405161066191815260200190565b60405180910390a350505050565b6001600160a01b03831661069a57806002600082825461068f91906108f9565b9091555061070c9050565b6001600160a01b038316600090815260208190526040902054818110156106ed5760405163391434e360e21b81526001600160a01b038516600482015260248101829052604481018390526064016103aa565b6001600160a01b03841660009081526020819052604090209082900390555b6001600160a01b03821661072857600280548290039055610747565b6001600160a01b03821660009081526020819052604090208054820190555b816001600160a01b0316836001600160a01b03167fddf252ad1be2c89b69c2b068fc378daa952ba7f163c4a11628f55a4df523b3ef8360405161078c91815260200190565b60405180910390a3505050565b60006020808352835180602085015260005b818110156107c7578581018301518582016040015282016107ab565b506000604082860101526040601f19601f8301168501019250505092915050565b80356001600160a01b03811681146107ff57600080fd5b919050565b6000806040838503121561081757600080fd5b610820836107e8565b946020939093013593505050565b60008060006060848603121561084357600080fd5b61084c846107e8565b925061085a602085016107e8565b9150604084013590509250925092565b60006020828403121561087c57600080fd5b610885826107e8565b9392505050565b6000806040838503121561089f57600080fd5b6108a8836107e8565b91506108b6602084016107e8565b90509250929050565b600181811c908216806108d357607f821691505b6020821081036108f357634e487b7160e01b600052602260045260246000fd5b50919050565b808201808211156102f957634e487b7160e01b600052601160045260246000fdfea26469706673582212200c5e856b07a589cf29962e75d6cc5812eb0a5ad41e348c5f76ac035fa8777c8964736f6c63430008180033",
  "linkReferences": {},
  "deployedLinkReferences": {}
}