{
  "_format": "hh-sol-artifact-1",
  "contractName": "YTAutoConverter",
  "sourceName": "contracts/YTAutoConverter.sol",
  "abi": [
    {
      "inputs": [
        {
          "internalType": "address",
          "name": "_oracle",
          "type": "address"
        },
        {
          "internalType": "address",
          "name": "_tokenization",
          "type": "address"
        },
        {
          "internalType": "address",
          "name": "_stCoreToken",
          "type": "address"
        }
      ],
      "stateMutability": "nonpayable",
      "type": "constructor"
    },
    {
      "inputs": [
        {
          "internalType": "address",
          "name": "owner",
          "type": "address"
        }
      ],
      "name": "OwnableInvalidOwner",
      "type": "error"
    },
    {
      "inputs": [
        {
          "internalType": "address",
          "name": "account",
          "type": "address"
        }
      ],
      "name": "OwnableUnauthorizedAccount",
      "type": "error"
    },
    {
      "inputs": [
        {
          "internalType": "address",
          "name": "token",
          "type": "address"
        }
      ],
      "name": "SafeERC20FailedOperation",
      "type": "error"
    },
    {
      "anonymous": false,
      "inputs": [
        {
          "indexed": true,
          "internalType": "address",
          "name": "user",
          "type": "address"
        },
        {
          "indexed": false,
          "internalType": "uint256",
          "name": "maturity",
          "type": "uint256"
        },
        {
          "indexed": false,
          "internalType": "uint256",
          "name": "ytAmount",
          "type": "uint256"
        },
        {
          "indexed": false,
          "internalType": "uint256",
          "name": "ptAmount",
          "type": "uint256"
        }
      ],
      "name": "ConversionExecuted",
      "type": "event"
    },
    {
      "anonymous": false,
      "inputs": [
        {
          "indexed": true,
          "internalType": "address",
          "name": "user",
          "type": "address"
        },
        {
          "indexed": false,
          "internalType": "uint256",
          "name": "maturity",
          "type": "uint256"
        }
      ],
      "name": "MaturityAdded",
      "type": "event"
    },
    {
      "anonymous": false,
      "inputs": [
        {
          "indexed": true,
          "internalType": "address",
          "name": "user",
          "type": "address"
        },
        {
          "indexed": false,
          "internalType": "uint256",
          "name": "maturity",
          "type": "uint256"
        }
      ],
      "name": "MaturityRemoved",
      "type": "event"
    },
    {
      "anonymous": false,
      "inputs": [
        {
          "indexed": true,
          "internalType": "address",
          "name": "previousOwner",
          "type": "address"
        },
        {
          "indexed": true,
          "internalType": "address",
          "name": "newOwner",
          "type": "address"
        }
      ],
      "name": "OwnershipTransferred",
      "type": "event"
    },
    {
      "anonymous": false,
      "inputs": [
        {
          "indexed": true,
          "internalType": "address",
          "name": "user",
          "type": "address"
        },
        {
          "indexed": false,
          "internalType": "bool",
          "name": "enabled",
          "type": "bool"
        },
        {
          "indexed": false,
          "internalType": "uint256",
          "name": "thresholdPrice",
          "type": "uint256"
        }
      ],
      "name": "UserConfigUpdated",
      "type": "event"
    },
    {
      "inputs": [
        {
          "internalType": "uint256",
          "name": "maturity",
          "type": "uint256"
        }
      ],
      "name": "addMaturity",
      "outputs": [],
      "stateMutability": "nonpayable",
      "type": "function"
    },
    {
      "inputs": [
        {
          "internalType": "address",
          "name": "user",
          "type": "address"
        },
        {
          "internalType": "uint256",
          "name": "maturity",
          "type": "uint256"
        }
      ],
      "name": "canExecuteConversion",
      "outputs": [
        {
          "internalType": "bool",
          "name": "",
          "type": "bool"
        }
      ],
      "stateMutability": "view",
      "type": "function"
    },
    {
      "inputs": [
        {
          "internalType": "bool",
          "name": "_enabled",
          "type": "bool"
        },
        {
          "internalType": "uint256",
          "name": "_thresholdPrice",
          "type": "uint256"
        }
      ],
      "name": "configure",
      "outputs": [],
      "stateMutability": "nonpayable",
      "type": "function"
    },
    {
      "inputs": [
        {
          "internalType": "address",
          "name": "",
          "type": "address"
        },
        {
          "internalType": "uint256",
          "name": "",
          "type": "uint256"
        }
      ],
      "name": "conversionExecuted",
      "outputs": [
        {
          "internalType": "bool",
          "name": "",
          "type": "bool"
        }
      ],
      "stateMutability": "view",
      "type": "function"
    },
    {
      "inputs": [
        {
          "internalType": "address",
          "name": "ptToken",
          "type": "address"
        },
        {
          "internalType": "uint256",
          "name": "amount",
          "type": "uint256"
        }
      ],
      "name": "depositPTForDemo",
      "outputs": [],
      "stateMutability": "nonpayable",
      "type": "function"
    },
    {
      "inputs": [
        {
          "internalType": "address",
          "name": "user",
          "type": "address"
        },
        {
          "internalType": "uint256",
          "name": "maturity",
          "type": "uint256"
        }
      ],
      "name": "executeConversion",
      "outputs": [],
      "stateMutability": "nonpayable",
      "type": "function"
    },
    {
      "inputs": [
        {
          "internalType": "address",
          "name": "user",
          "type": "address"
        }
      ],
      "name": "getUserMaturities",
      "outputs": [
        {
          "internalType": "uint256[]",
          "name": "",
          "type": "uint256[]"
        }
      ],
      "stateMutability": "view",
      "type": "function"
    },
    {
      "inputs": [],
      "name": "oracle",
      "outputs": [
        {
          "internalType": "contract MockPriceOracle",
          "name": "",
          "type": "address"
        }
      ],
      "stateMutability": "view",
      "type": "function"
    },
    {
      "inputs": [],
      "name": "owner",
      "outputs": [
        {
          "internalType": "address",
          "name": "",
          "type": "address"
        }
      ],
      "stateMutability": "view",
      "type": "function"
    },
    {
      "inputs": [
        {
          "internalType": "uint256",
          "name": "maturity",
          "type": "uint256"
        }
      ],
      "name": "removeMaturity",
      "outputs": [],
      "stateMutability": "nonpayable",
      "type": "function"
    },
    {
      "inputs": [],
      "name": "renounceOwnership",
      "outputs": [],
      "stateMutability": "nonpayable",
      "type": "function"
    },
    {
      "inputs": [
        {
          "internalType": "uint256",
          "name": "maturity",
          "type": "uint256"
        }
      ],
      "name": "resetConversionStatus",
      "outputs": [],
      "stateMutability": "nonpayable",
      "type": "function"
    },
    {
      "inputs": [],
      "name": "stCoreToken",
      "outputs": [
        {
          "internalType": "address",
          "name": "",
          "type": "address"
        }
      ],
      "stateMutability": "view",
      "type": "function"
    },
    {
      "inputs": [],
      "name": "tokenization",
      "outputs": [
        {
          "internalType": "contract YieldTokenization",
          "name": "",
          "type": "address"
        }
      ],
      "stateMutability": "view",
      "type": "function"
    },
    {
      "inputs": [
        {
          "internalType": "address",
          "name": "newOwner",
          "type": "address"
        }
      ],
      "name": "transferOwnership",
      "outputs": [],
      "stateMutability": "nonpayable",
      "type": "function"
    },
    {
      "inputs": [
        {
          "internalType": "address",
          "name": "",
          "type": "address"
        }
      ],
      "name": "userConfigs",
      "outputs": [
        {
          "internalType": "bool",
          "name": "enabled",
          "type": "bool"
        },
        {
          "internalType": "uint256",
          "name": "thresholdPrice",
          "type": "uint256"
        }
      ],
      "stateMutability": "view",
      "type": "function"
    }
  ],
  "bytecode": "0x60806040523480156200001157600080fd5b506040516200143f3803806200143f833981016040819052620000349162000117565b33806200005b57604051631e4fbdf760e01b81526000600482015260240160405180910390fd5b6200006681620000aa565b50600180546001600160a01b039485166001600160a01b03199182161790915560028054938516938216939093179092556003805491909316911617905562000161565b600080546001600160a01b038381166001600160a01b0319831681178455604051919092169283917f8be0079c531659141344cd1fd0a4f28419497f9722a3daafe3b4186f6b6457e09190a35050565b80516001600160a01b03811681146200011257600080fd5b919050565b6000806000606084860312156200012d57600080fd5b6200013884620000fa565b92506200014860208501620000fa565b91506200015860408501620000fa565b90509250925092565b6112ce80620001716000396000f3fe608060405234801561001057600080fd5b50600436106101005760003560e01c806394e51f5411610097578063f2fde38b11610066578063f2fde38b14610275578063f684796a14610288578063f93d3d8a1461029b578063f9b6e0d0146102ae57600080fd5b806394e51f54146101cd5780639c2d06641461020b578063c2200e3c1461021e578063f291ed921461026257600080fd5b8063715018a6116100d3578063715018a6146101535780637dc0d1d01461015b578063810daf801461018b5780638da5cb5b146101bc57600080fd5b806301fe21501461010557806319fd6e951461011a578063416fe26a1461012d57806346935d7214610140575b600080fd5b6101186101133660046110ef565b6102ce565b005b61011861012836600461111d565b61041c565b61011861013b36600461111d565b6108c0565b61011861014e366004611157565b6108d9565b6101186109aa565b60015461016e906001600160a01b031681565b6040516001600160a01b0390911681526020015b60405180910390f35b6101186101993660046110ef565b33600090815260056020908152604080832093835292905220805460ff19169055565b6000546001600160a01b031661016e565b6101fb6101db36600461111d565b600560209081526000928352604080842090915290825290205460ff1681565b6040519015158152602001610182565b6101186102193660046110ef565b6109be565b61024b61022c366004611175565b6004602052600090815260409020805460019091015460ff9091169082565b604080519215158352602083019190915201610182565b60035461016e906001600160a01b031681565b610118610283366004611175565b610bfd565b60025461016e906001600160a01b031681565b6101fb6102a936600461111d565b610c3b565b6102c16102bc366004611175565b610d86565b6040516101829190611199565b33600090815260046020526040812090805b600283015481101561039a5783836002018281548110610302576103026111dd565b9060005260206000200154036103925760028301805461032490600190611209565b81548110610334576103346111dd565b9060005260206000200154836002018281548110610354576103546111dd565b600091825260209091200155600283018054806103735761037361121c565b600190038181906000526020600020016000905590556001915061039a565b6001016102e0565b50806103e25760405162461bcd60e51b815260206004820152601260248201527113585d1d5c9a5d1e481b9bdd08199bdd5b9960721b60448201526064015b60405180910390fd5b60405183815233907fbe8f48535ba9e6562bee6636a120df0b38e4eacb2dd7283e03cdd3fe8ee4bc7b9060200160405180910390a2505050565b6001600160a01b03821660009081526004602090815260408083208151606081018352815460ff161515815260018201548185015260028201805484518187028101870186528181529295939486019383018282801561049b57602002820191906000526020600020905b815481526020019060010190808311610487575b505050505081525050905080600001516104f05760405162461bcd60e51b815260206004820152601660248201527510dbdb9d995c9cda5bdb881b9bdd08195b98589b195960521b60448201526064016103d9565b6001600160a01b038316600090815260056020908152604080832085845290915290205460ff16156105645760405162461bcd60e51b815260206004820152601b60248201527f436f6e76657273696f6e20616c7265616479206578656375746564000000000060448201526064016103d9565b60015460035460405163d905c45560e01b81526001600160a01b03918216600482015291169063d905c45590602401602060405180830381865afa1580156105b0573d6000803e3d6000fd5b505050506040513d601f19601f820116820180604052508101906105d49190611232565b6106185760405162461bcd60e51b8152602060048201526015602482015274151a1c995cda1bdb19081b9bdd081c995858da1959605a1b60448201526064016103d9565b6002546040516339aba32f60e01b8152600481018490526000916001600160a01b0316906339aba32f90602401602060405180830381865afa158015610662573d6000803e3d6000fd5b505050506040513d601f19601f82011682018060405250810190610686919061124f565b600254604051636a9715bd60e11b8152600481018690529192506000916001600160a01b039091169063d52e2b7a90602401602060405180830381865afa1580156106d5573d6000803e3d6000fd5b505050506040513d601f19601f820116820180604052508101906106f9919061124f565b90506001600160a01b0382161580159061071b57506001600160a01b03811615155b6107585760405162461bcd60e51b815260206004820152600e60248201526d496e76616c696420746f6b656e7360901b60448201526064016103d9565b6040516370a0823160e01b81526001600160a01b038681166004830152600091908416906370a0823190602401602060405180830381865afa1580156107a2573d6000803e3d6000fd5b505050506040513d601f19601f820116820180604052508101906107c6919061126c565b9050600081116108085760405162461bcd60e51b815260206004820152600d60248201526c4e6f2059542062616c616e636560981b60448201526064016103d9565b61081d6001600160a01b038416873084610df5565b600254610837906001600160a01b03858116911683610e62565b61084b6001600160a01b0383168783610eec565b6001600160a01b0386166000818152600560209081526040808320898452825291829020805460ff1916600117905581518881529081018490529081018390527fbe992eb4f472bf56100b7d74bc56c9474b31eddf0ab0739308f75e3ed81cd6dd9060600160405180910390a2505050505050565b6108d56001600160a01b038316333084610df5565b5050565b33600081815260046020908152604091829020805460ff19168615159081178255600190910185905582519081529081018490527f76577ba9ae596a9abc6d0872d35b27f4d2d141b39f7845537c9fe821931b9ae2910160405180910390a281156108d5576001546003546040516309d8799960e41b81526001600160a01b03918216600482015260248101849052911690639d87999090604401600060405180830381600087803b15801561098e57600080fd5b505af11580156109a2573d6000803e3d6000fd5b505050505050565b6109b2610f22565b6109bc6000610f4f565b565b600254604051636a9715bd60e11b8152600481018390526000916001600160a01b03169063d52e2b7a90602401602060405180830381865afa158015610a08573d6000803e3d6000fd5b505050506040513d601f19601f82011682018060405250810190610a2c919061124f565b6002546040516339aba32f60e01b8152600481018590529192506000916001600160a01b03909116906339aba32f90602401602060405180830381865afa158015610a7b573d6000803e3d6000fd5b505050506040513d601f19601f82011682018060405250810190610a9f919061124f565b90506001600160a01b03821615801590610ac157506001600160a01b03811615155b610b005760405162461bcd60e51b815260206004820152601060248201526f496e76616c6964206d6174757269747960801b60448201526064016103d9565b336000908152600460205260408120905b6002820154811015610b8c5784826002018281548110610b3357610b336111dd565b906000526020600020015403610b845760405162461bcd60e51b815260206004820152601660248201527513585d1d5c9a5d1e48185b1c9958591e48185919195960521b60448201526064016103d9565b600101610b11565b506002810180546001810182556000918252602080832090910186905533808352600582526040808420888552835292839020805460ff1916905591518681527f99e1cd3c968bc4f74caa5a11a64d5b4179eb4b4c5bd3600fc09aab2f0c7882dc910160405180910390a250505050565b610c05610f22565b6001600160a01b038116610c2f57604051631e4fbdf760e01b8152600060048201526024016103d9565b610c3881610f4f565b50565b6001600160a01b03821660009081526004602090815260408083208151606081018352815460ff161515815260018201548185015260028201805484518187028101870186528181528796939586019390929190830182828015610cbe57602002820191906000526020600020905b815481526020019060010190808311610caa575b505050505081525050905080600001511580610cfd57506001600160a01b038416600090815260056020908152604080832086845290915290205460ff165b15610d0c576000915050610d80565b60015460035460405163d905c45560e01b81526001600160a01b03918216600482015291169063d905c45590602401602060405180830381865afa158015610d58573d6000803e3d6000fd5b505050506040513d601f19601f82011682018060405250810190610d7c9190611232565b9150505b92915050565b6001600160a01b038116600090815260046020908152604091829020600201805483518184028101840190945280845260609392830182828015610de957602002820191906000526020600020905b815481526020019060010190808311610dd5575b50505050509050919050565b6040516001600160a01b038481166024830152838116604483015260648201839052610e5c9186918216906323b872dd906084015b604051602081830303815290604052915060e01b6020820180516001600160e01b038381831617835250505050610f9f565b50505050565b604051636eb1769f60e11b81523060048201526001600160a01b0383811660248301526000919085169063dd62ed3e90604401602060405180830381865afa158015610eb2573d6000803e3d6000fd5b505050506040513d601f19601f82011682018060405250810190610ed6919061126c565b9050610e5c8484610ee78585611285565b611010565b6040516001600160a01b03838116602483015260448201839052610f1d91859182169063a9059cbb90606401610e2a565b505050565b6000546001600160a01b031633146109bc5760405163118cdaa760e01b81523360048201526024016103d9565b600080546001600160a01b038381166001600160a01b0319831681178455604051919092169283917f8be0079c531659141344cd1fd0a4f28419497f9722a3daafe3b4186f6b6457e09190a35050565b600080602060008451602086016000885af180610fc2576040513d6000823e3d81fd5b50506000513d91508115610fda578060011415610fe7565b6001600160a01b0384163b155b15610e5c57604051635274afe760e01b81526001600160a01b03851660048201526024016103d9565b604080516001600160a01b038416602482015260448082018490528251808303909101815260649091019091526020810180516001600160e01b031663095ea7b360e01b17905261106184826110a0565b610e5c576040516001600160a01b0384811660248301526000604483015261109691869182169063095ea7b390606401610e2a565b610e5c8482610f9f565b6000806000806020600086516020880160008a5af192503d915060005190508280156110e5575081156110d657806001146110e5565b6000866001600160a01b03163b115b9695505050505050565b60006020828403121561110157600080fd5b5035919050565b6001600160a01b0381168114610c3857600080fd5b6000806040838503121561113057600080fd5b823561113b81611108565b946020939093013593505050565b8015158114610c3857600080fd5b6000806040838503121561116a57600080fd5b823561113b81611149565b60006020828403121561118757600080fd5b813561119281611108565b9392505050565b6020808252825182820181905260009190848201906040850190845b818110156111d1578351835292840192918401916001016111b5565b50909695505050505050565b634e487b7160e01b600052603260045260246000fd5b634e487b7160e01b600052601160045260246000fd5b81810381811115610d8057610d806111f3565b634e487b7160e01b600052603160045260246000fd5b60006020828403121561124457600080fd5b815161119281611149565b60006020828403121561126157600080fd5b815161119281611108565b60006020828403121561127e57600080fd5b5051919050565b80820180821115610d8057610d806111f356fea26469706673582212200a493f014742f661a6a1c131cc41cf6a3b304b092cd2f4138f2ebd9f3b70978664736f6c63430008180033",
  "linkReferences": {},
  "deployedLinkReferences": {}
}